{
  "_format": "hh-sol-artifact-1",
  "contractName": "Q2T",
  "sourceName": "contracts/Q2T.sol",
  "abi": [
    {
      "inputs": [
        {
          "internalType": "address",
          "name": "_addressesProvider",
          "type": "address"
        }
      ],
      "stateMutability": "nonpayable",
      "type": "constructor"
    },
    {
      "anonymous": false,
      "inputs": [
        {
          "indexed": false,
          "internalType": "address",
          "name": "_communityTreasury",
          "type": "address"
        },
        {
          "indexed": false,
          "internalType": "address",
          "name": "_currency",
          "type": "address"
        },
        {
          "indexed": false,
          "internalType": "uint256",
          "name": "_amount",
          "type": "uint256"
        }
      ],
      "name": "Delegated",
      "type": "event"
    },
    {
      "anonymous": false,
      "inputs": [
        {
          "indexed": false,
          "internalType": "enum DataTypes.Template",
          "name": "_template",
          "type": "uint8"
        },
        {
          "indexed": false,
          "internalType": "address",
          "name": "_depositor",
          "type": "address"
        },
        {
          "indexed": false,
          "internalType": "string",
          "name": "_currency",
          "type": "string"
        },
        {
          "indexed": false,
          "internalType": "uint256",
          "name": "_amount",
          "type": "uint256"
        },
        {
          "indexed": false,
          "internalType": "uint256",
          "name": "_repaymentAmount",
          "type": "uint256"
        },
        {
          "indexed": false,
          "internalType": "uint256",
          "name": "_aTokensAmount",
          "type": "uint256"
        }
      ],
      "name": "Deposited",
      "type": "event"
    },
    {
      "anonymous": false,
      "inputs": [
        {
          "indexed": false,
          "internalType": "enum DataTypes.Template",
          "name": "_template",
          "type": "uint8"
        },
        {
          "indexed": false,
          "internalType": "address",
          "name": "_milestones",
          "type": "address"
        },
        {
          "indexed": false,
          "internalType": "address",
          "name": "_communityTreasury",
          "type": "address"
        }
      ],
      "name": "MilestonesDeployed",
      "type": "event"
    },
    {
      "anonymous": false,
      "inputs": [
        {
          "indexed": false,
          "internalType": "enum DataTypes.Template",
          "name": "_template",
          "type": "uint8"
        },
        {
          "indexed": false,
          "internalType": "address",
          "name": "_milestones",
          "type": "address"
        }
      ],
      "name": "ThresholdReached",
      "type": "event"
    },
    {
      "inputs": [],
      "name": "addressesProvider",
      "outputs": [
        {
          "internalType": "address",
          "name": "",
          "type": "address"
        }
      ],
      "stateMutability": "view",
      "type": "function"
    },
    {
      "inputs": [
        {
          "internalType": "address",
          "name": "",
          "type": "address"
        }
      ],
      "name": "communitiesMilestones",
      "outputs": [
        {
          "internalType": "address",
          "name": "",
          "type": "address"
        }
      ],
      "stateMutability": "view",
      "type": "function"
    },
    {
      "inputs": [
        {
          "internalType": "enum DataTypes.Template",
          "name": "_template",
          "type": "uint8"
        },
        {
          "internalType": "address",
          "name": "_communityAddress",
          "type": "address"
        }
      ],
      "name": "deployMilestones",
      "outputs": [
        {
          "internalType": "address",
          "name": "",
          "type": "address"
        }
      ],
      "stateMutability": "nonpayable",
      "type": "function"
    },
    {
      "inputs": [
        {
          "internalType": "enum DataTypes.Template",
          "name": "_template",
          "type": "uint8"
        },
        {
          "internalType": "uint256",
          "name": "_amount",
          "type": "uint256"
        },
        {
          "internalType": "uint256",
          "name": "_repayment",
          "type": "uint256"
        }
      ],
      "name": "deposit",
      "outputs": [],
      "stateMutability": "nonpayable",
      "type": "function"
    },
    {
      "inputs": [
        {
          "internalType": "address",
          "name": "",
          "type": "address"
        }
      ],
      "name": "depositors",
      "outputs": [
        {
          "internalType": "uint256",
          "name": "",
          "type": "uint256"
        }
      ],
      "stateMutability": "view",
      "type": "function"
    },
    {
      "inputs": [
        {
          "internalType": "enum DataTypes.Template",
          "name": "_template",
          "type": "uint8"
        }
      ],
      "name": "getMilestonesPerTemplate",
      "outputs": [
        {
          "internalType": "uint256",
          "name": "",
          "type": "uint256"
        }
      ],
      "stateMutability": "view",
      "type": "function"
    },
    {
      "inputs": [
        {
          "internalType": "address",
          "name": "",
          "type": "address"
        }
      ],
      "name": "milestonesTemplates",
      "outputs": [
        {
          "internalType": "enum DataTypes.Template",
          "name": "",
          "type": "uint8"
        }
      ],
      "stateMutability": "view",
      "type": "function"
    },
    {
      "inputs": [
        {
          "internalType": "address",
          "name": "",
          "type": "address"
        }
      ],
      "name": "milestonesTreasuries",
      "outputs": [
        {
          "internalType": "address",
          "name": "",
          "type": "address"
        }
      ],
      "stateMutability": "view",
      "type": "function"
    },
    {
      "inputs": [
        {
          "internalType": "address",
          "name": "",
          "type": "address"
        },
        {
          "internalType": "address",
          "name": "",
          "type": "address"
        },
        {
          "internalType": "uint256[]",
          "name": "",
          "type": "uint256[]"
        },
        {
          "internalType": "uint256[]",
          "name": "",
          "type": "uint256[]"
        },
        {
          "internalType": "bytes",
          "name": "",
          "type": "bytes"
        }
      ],
      "name": "onERC1155BatchReceived",
      "outputs": [
        {
          "internalType": "bytes4",
          "name": "",
          "type": "bytes4"
        }
      ],
      "stateMutability": "nonpayable",
      "type": "function"
    },
    {
      "inputs": [
        {
          "internalType": "address",
          "name": "",
          "type": "address"
        },
        {
          "internalType": "address",
          "name": "",
          "type": "address"
        },
        {
          "internalType": "uint256",
          "name": "",
          "type": "uint256"
        },
        {
          "internalType": "uint256",
          "name": "",
          "type": "uint256"
        },
        {
          "internalType": "bytes",
          "name": "",
          "type": "bytes"
        }
      ],
      "name": "onERC1155Received",
      "outputs": [
        {
          "internalType": "bytes4",
          "name": "",
          "type": "bytes4"
        }
      ],
      "stateMutability": "nonpayable",
      "type": "function"
    },
    {
      "inputs": [
        {
          "internalType": "address",
          "name": "",
          "type": "address"
        },
        {
          "internalType": "address",
          "name": "",
          "type": "address"
        }
      ],
      "name": "repaymentAmounts",
      "outputs": [
        {
          "internalType": "uint256",
          "name": "",
          "type": "uint256"
        }
      ],
      "stateMutability": "view",
      "type": "function"
    },
    {
      "inputs": [
        {
          "internalType": "bytes4",
          "name": "interfaceId",
          "type": "bytes4"
        }
      ],
      "name": "supportsInterface",
      "outputs": [
        {
          "internalType": "bool",
          "name": "",
          "type": "bool"
        }
      ],
      "stateMutability": "view",
      "type": "function"
    },
    {
      "inputs": [
        {
          "internalType": "enum DataTypes.Template",
          "name": "",
          "type": "uint8"
        },
        {
          "internalType": "uint256",
          "name": "",
          "type": "uint256"
        }
      ],
      "name": "temapltesMilestones",
      "outputs": [
        {
          "internalType": "address",
          "name": "",
          "type": "address"
        }
      ],
      "stateMutability": "view",
      "type": "function"
    },
    {
      "inputs": [],
      "name": "templatesReapayersTreasuries",
      "outputs": [
        {
          "internalType": "address",
          "name": "",
          "type": "address"
        }
      ],
      "stateMutability": "view",
      "type": "function"
    },
    {
      "inputs": [],
      "name": "templatesTreasuries",
      "outputs": [
        {
          "internalType": "address",
          "name": "",
          "type": "address"
        }
      ],
      "stateMutability": "view",
      "type": "function"
    },
    {
      "inputs": [],
      "name": "thresholdReached",
      "outputs": [],
      "stateMutability": "nonpayable",
      "type": "function"
    },
    {
      "inputs": [],
      "name": "totalQ2TFund",
      "outputs": [
        {
          "internalType": "uint256",
          "name": "",
          "type": "uint256"
        }
      ],
      "stateMutability": "view",
      "type": "function"
    },
    {
      "inputs": [],
      "name": "totalRepayerFund",
      "outputs": [
        {
          "internalType": "uint256",
          "name": "",
          "type": "uint256"
        }
      ],
      "stateMutability": "view",
      "type": "function"
    }
  ],
  "bytecode": "0x60806040523480156200001157600080fd5b506040516200b0133803806200b013833981810160405281019062000037919062000445565b6200004f6301ffc9a760e01b6200030960201b60201c565b6200007063bc197c8160e01b63f23a6e6160e01b186200030960201b60201c565b600073ffffffffffffffffffffffffffffffffffffffff168173ffffffffffffffffffffffffffffffffffffffff161415620000e3576040517f08c379a0000000000000000000000000000000000000000000000000000000008152600401620000da90620004f1565b60405180910390fd5b80600160006101000a81548173ffffffffffffffffffffffffffffffffffffffff021916908373ffffffffffffffffffffffffffffffffffffffff160217905550600160009054906101000a900473ffffffffffffffffffffffffffffffffffffffff1673ffffffffffffffffffffffffffffffffffffffff166339327e9e6040518163ffffffff1660e01b815260040160206040518083038186803b1580156200018d57600080fd5b505afa158015620001a2573d6000803e3d6000fd5b505050506040513d601f19601f82011682018060405250810190620001c8919062000445565b600260006101000a81548173ffffffffffffffffffffffffffffffffffffffff021916908373ffffffffffffffffffffffffffffffffffffffff1602179055506000604051620002189062000412565b6200022390620004cf565b604051809103906000f08015801562000240573d6000803e3d6000fd5b50905080600460006101000a81548173ffffffffffffffffffffffffffffffffffffffff021916908373ffffffffffffffffffffffffffffffffffffffff1602179055506000604051620002949062000420565b6200029f90620004cf565b604051809103906000f080158015620002bc573d6000803e3d6000fd5b50905080600360006101000a81548173ffffffffffffffffffffffffffffffffffffffff021916908373ffffffffffffffffffffffffffffffffffffffff16021790555050505062000572565b63ffffffff60e01b817bffffffffffffffffffffffffffffffffffffffffffffffffffffffff19161415620003a6576040517f08c379a000000000000000000000000000000000000000000000000000000000815260040180806020018281038252601c8152602001807f4552433136353a20696e76616c696420696e746572666163652069640000000081525060200191505060405180910390fd5b6001600080837bffffffffffffffffffffffffffffffffffffffffffffffffffffffff19167bffffffffffffffffffffffffffffffffffffffffffffffffffffffff1916815260200190815260200160002060006101000a81548160ff02191690831515021790555050565b613c0080620040f283390190565b6133218062007cf283390190565b6000815190506200043f8162000558565b92915050565b6000602082840312156200045857600080fd5b600062000468848285016200042e565b91505092915050565b60006200048060008362000513565b9150600082019050919050565b60006200049c601f8362000513565b91507f416464726573736573732070726f76696465722063616e6e6f742062652030006000830152602082019050919050565b60006020820190508181036000830152620004ea8162000471565b9050919050565b600060208201905081810360008301526200050c816200048d565b9050919050565b600082825260208201905092915050565b6000620005318262000538565b9050919050565b600073ffffffffffffffffffffffffffffffffffffffff82169050919050565b620005638162000524565b81146200056f57600080fd5b50565b613b7080620005826000396000f3fe608060405234801561001057600080fd5b50600436106101165760003560e01c8063ab1afb4a116100a2578063dcc2e00011610071578063dcc2e0001461031d578063eed75f6d14610327578063f23a6e6114610357578063f4a43a3a14610387578063fbd54f57146103b757610116565b8063ab1afb4a1461026f578063b33263061461029f578063bc197c81146102cf578063c72c4d10146102ff57610116565b80634259b212116100e95780634259b212146101b5578063599d80a1146101d35780635ffa1fa014610203578063a4b8e15814610221578063a96d00401461023f57610116565b806301ffc9a71461011b5780632cb311441461014b57806339715c671461016757806340836da114610185575b600080fd5b61013560048036038101906101309190613114565b6103e7565b6040516101429190613661565b60405180910390f35b610165600480360381019061016091906131de565b61044e565b005b61016f611043565b60405161017c9190613861565b60405180910390f35b61019f600480360381019061019a9190612ece565b611049565b6040516101ac9190613518565b60405180910390f35b6101bd61107c565b6040516101ca9190613861565b60405180910390f35b6101ed60048036038101906101e89190613166565b611082565b6040516101fa9190613518565b60405180910390f35b61020b611659565b6040516102189190613518565b60405180910390f35b61022961167f565b6040516102369190613518565b60405180910390f35b610259600480360381019061025491906131a2565b6116a5565b6040516102669190613518565b60405180910390f35b61028960048036038101906102849190612ece565b6116f3565b6040516102969190613697565b60405180910390f35b6102b960048036038101906102b49190612f20565b611713565b6040516102c69190613861565b60405180910390f35b6102e960048036038101906102e49190612f5c565b611738565b6040516102f6919061367c565b60405180910390f35b61030761174d565b6040516103149190613518565b60405180910390f35b610325611773565b005b610341600480360381019061033c9190612ece565b611f3c565b60405161034e9190613861565b60405180910390f35b610371600480360381019061036c919061301b565b611f54565b60405161037e919061367c565b60405180910390f35b6103a1600480360381019061039c919061313d565b611f69565b6040516103ae9190613861565b60405180910390f35b6103d160048036038101906103cc9190612ece565b611f9f565b6040516103de9190613518565b60405180910390f35b6000806000837bffffffffffffffffffffffffffffffffffffffffffffffffffffffff19167bffffffffffffffffffffffffffffffffffffffffffffffffffffffff1916815260200190815260200160002060009054906101000a900460ff169050919050565b6000600381111561045b57fe5b83600381111561046757fe5b14156104a8576040517f08c379a000000000000000000000000000000000000000000000000000000000815260040161049f90613841565b60405180910390fd5b6000600160009054906101000a900473ffffffffffffffffffffffffffffffffffffffff1673ffffffffffffffffffffffffffffffffffffffff1663dacacb4e6040518163ffffffff1660e01b8152600401610503906137e1565b60206040518083038186803b15801561051b57600080fd5b505afa15801561052f573d6000803e3d6000fd5b505050506040513d601f19601f820116820180604052508101906105539190612ef7565b90506000819050838173ffffffffffffffffffffffffffffffffffffffff166370a08231336040518263ffffffff1660e01b81526004016105949190613533565b60206040518083038186803b1580156105ac57600080fd5b505afa1580156105c0573d6000803e3d6000fd5b505050506040513d601f19601f820116820180604052508101906105e49190613257565b1015610625576040517f08c379a000000000000000000000000000000000000000000000000000000000815260040161061c90613801565b60405180910390fd5b8073ffffffffffffffffffffffffffffffffffffffff166323b872dd3330876040518463ffffffff1660e01b81526004016106629392919061354e565b602060405180830381600087803b15801561067c57600080fd5b505af1158015610690573d6000803e3d6000fd5b505050506040513d601f19601f820116820180604052508101906106b491906130eb565b5060006106dd60646106cf8688611fd290919063ffffffff16565b61205890919063ffffffff16565b905060006106f482876120e190919063ffffffff16565b90506000600260009054906101000a900473ffffffffffffffffffffffffffffffffffffffff1673ffffffffffffffffffffffffffffffffffffffff16630261bf8b6040518163ffffffff1660e01b815260040160206040518083038186803b15801561076057600080fd5b505afa158015610774573d6000803e3d6000fd5b505050506040513d601f19601f820116820180604052508101906107989190612ef7565b905060008173ffffffffffffffffffffffffffffffffffffffff166335ea6a75876040518263ffffffff1660e01b81526004016107d59190613518565b6101806040518083038186803b1580156107ee57600080fd5b505afa158015610802573d6000803e3d6000fd5b505050506040513d601f19601f82011682018060405250810190610826919061322d565b60e00151905060008173ffffffffffffffffffffffffffffffffffffffff166370a08231306040518263ffffffff1660e01b81526004016108679190613518565b60206040518083038186803b15801561087f57600080fd5b505afa158015610893573d6000803e3d6000fd5b505050506040513d601f19601f820116820180604052508101906108b79190613257565b905060006108d0600554836120e190919063ffffffff16565b90508673ffffffffffffffffffffffffffffffffffffffff1663095ea7b385876040518363ffffffff1660e01b815260040161090d9291906135f3565b602060405180830381600087803b15801561092757600080fd5b505af115801561093b573d6000803e3d6000fd5b505050506040513d601f19601f8201168201806040525081019061095f91906130eb565b508373ffffffffffffffffffffffffffffffffffffffff1663e8eda9df89873060006040518563ffffffff1660e01b81526004016109a0949392919061361c565b600060405180830381600087803b1580156109ba57600080fd5b505af11580156109ce573d6000803e3d6000fd5b505050508273ffffffffffffffffffffffffffffffffffffffff166370a08231306040518263ffffffff1660e01b8152600401610a0b9190613518565b60206040518083038186803b158015610a2357600080fd5b505afa158015610a37573d6000803e3d6000fd5b505050506040513d601f19601f82011682018060405250810190610a5b9190613257565b6005819055506000610a8a82610a7c856005546120e190919063ffffffff16565b61216490919063ffffffff16565b90506000600460009054906101000a900473ffffffffffffffffffffffffffffffffffffffff1673ffffffffffffffffffffffffffffffffffffffff1662fdd58e308f6003811115610ad857fe5b6040518363ffffffff1660e01b8152600401610af59291906135f3565b60206040518083038186803b158015610b0d57600080fd5b505afa158015610b21573d6000803e3d6000fd5b505050506040513d601f19601f82011682018060405250810190610b459190613257565b1415610bdf57600460009054906101000a900473ffffffffffffffffffffffffffffffffffffffff1673ffffffffffffffffffffffffffffffffffffffff1663f26748e28d836040518363ffffffff1660e01b8152600401610ba8929190613778565b600060405180830381600087803b158015610bc257600080fd5b505af1158015610bd6573d6000803e3d6000fd5b50505050610c6f565b600460009054906101000a900473ffffffffffffffffffffffffffffffffffffffff1673ffffffffffffffffffffffffffffffffffffffff1663776bd4598d836040518363ffffffff1660e01b8152600401610c3c929190613778565b600060405180830381600087803b158015610c5657600080fd5b505af1158015610c6a573d6000803e3d6000fd5b505050505b6000600360009054906101000a900473ffffffffffffffffffffffffffffffffffffffff1673ffffffffffffffffffffffffffffffffffffffff1662fdd58e308f6003811115610cbb57fe5b6040518363ffffffff1660e01b8152600401610cd89291906135f3565b60206040518083038186803b158015610cf057600080fd5b505afa158015610d04573d6000803e3d6000fd5b505050506040513d601f19601f82011682018060405250810190610d289190613257565b1415610dc257600360009054906101000a900473ffffffffffffffffffffffffffffffffffffffff1673ffffffffffffffffffffffffffffffffffffffff1663f26748e28d896040518363ffffffff1660e01b8152600401610d8b929190613778565b600060405180830381600087803b158015610da557600080fd5b505af1158015610db9573d6000803e3d6000fd5b50505050610e52565b600360009054906101000a900473ffffffffffffffffffffffffffffffffffffffff1673ffffffffffffffffffffffffffffffffffffffff1663776bd4598d896040518363ffffffff1660e01b8152600401610e1f929190613778565b600060405180830381600087803b158015610e3957600080fd5b505af1158015610e4d573d6000803e3d6000fd5b505050505b610ee187600860003373ffffffffffffffffffffffffffffffffffffffff1673ffffffffffffffffffffffffffffffffffffffff16815260200190815260200160002060008c73ffffffffffffffffffffffffffffffffffffffff1673ffffffffffffffffffffffffffffffffffffffff1681526020019081526020016000205461216490919063ffffffff16565b600860003373ffffffffffffffffffffffffffffffffffffffff1673ffffffffffffffffffffffffffffffffffffffff16815260200190815260200160002060008b73ffffffffffffffffffffffffffffffffffffffff1673ffffffffffffffffffffffffffffffffffffffff16815260200190815260200160002081905550610fb386600960003373ffffffffffffffffffffffffffffffffffffffff1673ffffffffffffffffffffffffffffffffffffffff1681526020019081526020016000205461216490919063ffffffff16565b600960003373ffffffffffffffffffffffffffffffffffffffff1673ffffffffffffffffffffffffffffffffffffffff168152602001908152602001600020819055507f52977b753338e850a90420caca2d944926829265a1dbf7b579d40868574922fd8c338d8a8560405161102d9594939291906136db565b60405180910390a1505050505050505050505050565b60065481565b600d6020528060005260406000206000915054906101000a900473ffffffffffffffffffffffffffffffffffffffff1681565b60075481565b60008073ffffffffffffffffffffffffffffffffffffffff16600d60008473ffffffffffffffffffffffffffffffffffffffff1673ffffffffffffffffffffffffffffffffffffffff16815260200190815260200160002060009054906101000a900473ffffffffffffffffffffffffffffffffffffffff1673ffffffffffffffffffffffffffffffffffffffff1614611151576040517f08c379a0000000000000000000000000000000000000000000000000000000008152600401611148906137c1565b60405180910390fd5b6000600381111561115e57fe5b83600381111561116a57fe5b14156111ab576040517f08c379a00000000000000000000000000000000000000000000000000000000081526004016111a290613841565b60405180910390fd5b6000600160009054906101000a900473ffffffffffffffffffffffffffffffffffffffff1673ffffffffffffffffffffffffffffffffffffffff16639ceb733a6040518163ffffffff1660e01b815260040160206040518083038186803b15801561121557600080fd5b505afa158015611229573d6000803e3d6000fd5b505050506040513d601f19601f8201168201806040525081019061124d9190612ef7565b73ffffffffffffffffffffffffffffffffffffffff166342a26d10846040518263ffffffff1660e01b81526004016112859190613518565b602060405180830381600087803b15801561129f57600080fd5b505af11580156112b3573d6000803e3d6000fd5b505050506040513d601f19601f820116820180604052508101906112d79190612ef7565b9050600a60008560038111156112e957fe5b60038111156112f457fe5b8152602001908152602001600020819080600181540180825580915050600190039060005260206000200160009091909190916101000a81548173ffffffffffffffffffffffffffffffffffffffff021916908373ffffffffffffffffffffffffffffffffffffffff16021790555083600b60008373ffffffffffffffffffffffffffffffffffffffff1673ffffffffffffffffffffffffffffffffffffffff16815260200190815260200160002060006101000a81548160ff021916908360038111156113be57fe5b02179055506000600160009054906101000a900473ffffffffffffffffffffffffffffffffffffffff1673ffffffffffffffffffffffffffffffffffffffff166383bc7a986040518163ffffffff1660e01b815260040160206040518083038186803b15801561142d57600080fd5b505afa158015611441573d6000803e3d6000fd5b505050506040513d601f19601f820116820180604052508101906114659190612ef7565b73ffffffffffffffffffffffffffffffffffffffff166357f4cdf33084600160009054906101000a900473ffffffffffffffffffffffffffffffffffffffff166040518463ffffffff1660e01b81526004016114c393929190613585565b602060405180830381600087803b1580156114dd57600080fd5b505af11580156114f1573d6000803e3d6000fd5b505050506040513d601f19601f820116820180604052508101906115159190612ef7565b905080600c60008473ffffffffffffffffffffffffffffffffffffffff1673ffffffffffffffffffffffffffffffffffffffff16815260200190815260200160002060006101000a81548173ffffffffffffffffffffffffffffffffffffffff021916908373ffffffffffffffffffffffffffffffffffffffff16021790555081600d60008673ffffffffffffffffffffffffffffffffffffffff1673ffffffffffffffffffffffffffffffffffffffff16815260200190815260200160002060006101000a81548173ffffffffffffffffffffffffffffffffffffffff021916908373ffffffffffffffffffffffffffffffffffffffff1602179055507f95696a2953449d8724cc4c2e8a36cc4e6363d0535a2c9f92bbdda77a3da8fcff85838360405161164693929190613741565b60405180910390a1819250505092915050565b600460009054906101000a900473ffffffffffffffffffffffffffffffffffffffff1681565b600360009054906101000a900473ffffffffffffffffffffffffffffffffffffffff1681565b600a60205281600052604060002081815481106116c157600080fd5b906000526020600020016000915091509054906101000a900473ffffffffffffffffffffffffffffffffffffffff1681565b600b6020528060005260406000206000915054906101000a900460ff1681565b6008602052816000526040600020602052806000526040600020600091509150505481565b600063bc197c8160e01b905095945050505050565b600160009054906101000a900473ffffffffffffffffffffffffffffffffffffffff1681565b6000600b60003373ffffffffffffffffffffffffffffffffffffffff1673ffffffffffffffffffffffffffffffffffffffff16815260200190815260200160002060009054906101000a900460ff169050600060038111156117d157fe5b8160038111156117dd57fe5b141561181e576040517f08c379a0000000000000000000000000000000000000000000000000000000008152600401611815906137a1565b60405180910390fd5b60006001600460009054906101000a900473ffffffffffffffffffffffffffffffffffffffff1673ffffffffffffffffffffffffffffffffffffffff1662fdd58e3085600381111561186c57fe5b6040518363ffffffff1660e01b81526004016118899291906135f3565b60206040518083038186803b1580156118a157600080fd5b505afa1580156118b5573d6000803e3d6000fd5b505050506040513d601f19601f820116820180604052508101906118d99190613257565b1415611aeb576000600460009054906101000a900473ffffffffffffffffffffffffffffffffffffffff1673ffffffffffffffffffffffffffffffffffffffff16635549fa58846040518263ffffffff1660e01b815260040161193c9190613697565b60206040518083038186803b15801561195457600080fd5b505afa158015611968573d6000803e3d6000fd5b505050506040513d601f19601f8201168201806040525081019061198c9190613257565b9050600460009054906101000a900473ffffffffffffffffffffffffffffffffffffffff1673ffffffffffffffffffffffffffffffffffffffff166392d2f118846040518263ffffffff1660e01b81526004016119e99190613697565b600060405180830381600087803b158015611a0357600080fd5b505af1158015611a17573d6000803e3d6000fd5b50505050611a426064611a34603284611fd290919063ffffffff16565b61205890919063ffffffff16565b9150600460009054906101000a900473ffffffffffffffffffffffffffffffffffffffff1673ffffffffffffffffffffffffffffffffffffffff1663042793a284611a9685856120e190919063ffffffff16565b6040518363ffffffff1660e01b8152600401611ab3929190613778565b600060405180830381600087803b158015611acd57600080fd5b505af1158015611ae1573d6000803e3d6000fd5b5050505050611b9b565b600460009054906101000a900473ffffffffffffffffffffffffffffffffffffffff1673ffffffffffffffffffffffffffffffffffffffff1663acbc9b86836040518263ffffffff1660e01b8152600401611b469190613697565b602060405180830381600087803b158015611b6057600080fd5b505af1158015611b74573d6000803e3d6000fd5b505050506040513d601f19601f82011682018060405250810190611b989190613257565b90505b6000600260009054906101000a900473ffffffffffffffffffffffffffffffffffffffff1673ffffffffffffffffffffffffffffffffffffffff1663fca513a86040518163ffffffff1660e01b815260040160206040518083038186803b158015611c0557600080fd5b505afa158015611c19573d6000803e3d6000fd5b505050506040513d601f19601f82011682018060405250810190611c3d9190612ef7565b90506000600260009054906101000a900473ffffffffffffffffffffffffffffffffffffffff1673ffffffffffffffffffffffffffffffffffffffff16630261bf8b6040518163ffffffff1660e01b815260040160206040518083038186803b158015611ca957600080fd5b505afa158015611cbd573d6000803e3d6000fd5b505050506040513d601f19601f82011682018060405250810190611ce19190612ef7565b905060008173ffffffffffffffffffffffffffffffffffffffff1663bf92857c306040518263ffffffff1660e01b8152600401611d1e9190613518565b60c06040518083038186803b158015611d3657600080fd5b505afa158015611d4a573d6000803e3d6000fd5b505050506040513d601f19601f82011682018060405250810190611d6e9190613280565b505050925050506000611eba8473ffffffffffffffffffffffffffffffffffffffff1663b3596f07600160009054906101000a900473ffffffffffffffffffffffffffffffffffffffff1673ffffffffffffffffffffffffffffffffffffffff1663dacacb4e6040518163ffffffff1660e01b8152600401611def90613821565b60206040518083038186803b158015611e0757600080fd5b505afa158015611e1b573d6000803e3d6000fd5b505050506040513d601f19601f82011682018060405250810190611e3f9190612ef7565b6040518263ffffffff1660e01b8152600401611e5b9190613518565b60206040518083038186803b158015611e7357600080fd5b505afa158015611e87573d6000803e3d6000fd5b505050506040513d601f19601f82011682018060405250810190611eab9190613257565b8361205890919063ffffffff16565b9050611ee36064611ed5603284611fd290919063ffffffff16565b61205890919063ffffffff16565b905084811115611ef1578094505b611efb86866121ec565b7f5d4dbab1309d18b840746d705bee9caeea44d5047b7186bcf5da7231748c24368633604051611f2c9291906136b2565b60405180910390a1505050505050565b60096020528060005260406000206000915090505481565b600063f23a6e6160e01b905095945050505050565b6000600a6000836003811115611f7b57fe5b6003811115611f8657fe5b8152602001908152602001600020805490509050919050565b600c6020528060005260406000206000915054906101000a900473ffffffffffffffffffffffffffffffffffffffff1681565b600080831415611fe55760009050612052565b6000828402905082848281611ff657fe5b041461204d576040517f08c379a0000000000000000000000000000000000000000000000000000000008152600401808060200182810382526021815260200180613b1a6021913960400191505060405180910390fd5b809150505b92915050565b60008082116120cf576040517f08c379a000000000000000000000000000000000000000000000000000000000815260040180806020018281038252601a8152602001807f536166654d6174683a206469766973696f6e206279207a65726f00000000000081525060200191505060405180910390fd5b8183816120d857fe5b04905092915050565b600082821115612159576040517f08c379a000000000000000000000000000000000000000000000000000000000815260040180806020018281038252601e8152602001807f536166654d6174683a207375627472616374696f6e206f766572666c6f77000081525060200191505060405180910390fd5b818303905092915050565b6000808284019050838110156121e2576040517f08c379a000000000000000000000000000000000000000000000000000000000815260040180806020018281038252601b8152602001807f536166654d6174683a206164646974696f6e206f766572666c6f77000000000081525060200191505060405180910390fd5b8091505092915050565b6000806060600a600086600381111561220157fe5b600381111561220c57fe5b815260200190815260200160002080548060200260200160405190810160405280929190818152602001828054801561229a57602002820191906000526020600020905b8160009054906101000a900473ffffffffffffffffffffffffffffffffffffffff1673ffffffffffffffffffffffffffffffffffffffff1681526020019060010190808311612250575b5050505050905060008151905060608167ffffffffffffffff811180156122c057600080fd5b506040519080825280602002602001820160405280156122ef5781602001602082028036833780820191505090505b50905060608267ffffffffffffffff8111801561230b57600080fd5b5060405190808252806020026020018201604052801561233a5781602001602082028036833780820191505090505b50905060008060005b858110156124ed57600084828151811061235957fe5b60200260200101901515908115158152505086818151811061237757fe5b602002602001015197508773ffffffffffffffffffffffffffffffffffffffff1663eaad31e16040518163ffffffff1660e01b815260040160206040518083038186803b1580156123c757600080fd5b505afa1580156123db573d6000803e3d6000fd5b505050506040513d601f19601f820116820180604052508101906123ff9190613257565b985060008911156124e0576124978873ffffffffffffffffffffffffffffffffffffffff1663a9c2e34b6040518163ffffffff1660e01b8152600401600060405180830381600087803b15801561245557600080fd5b505af1158015612469573d6000803e3d6000fd5b505050506040513d6000823e3d601f19601f8201168201806040525081019061249291906130aa565b6126a6565b8583815181106124a357fe5b6020026020010181815250508180600101925050828060010193505060018482815181106124cd57fe5b6020026020010190151590811515815250505b8080600101915050612343565b5060606124fa8584612712565b905060606125088b836127cf565b90506000925060005b878110156126975785818151811061252557fe5b60200260200101511561268a57612681600c60008b848151811061254557fe5b602002602001015173ffffffffffffffffffffffffffffffffffffffff1673ffffffffffffffffffffffffffffffffffffffff16815260200190815260200160002060009054906101000a900473ffffffffffffffffffffffffffffffffffffffff16600160009054906101000a900473ffffffffffffffffffffffffffffffffffffffff1673ffffffffffffffffffffffffffffffffffffffff1663dacacb4e6040518163ffffffff1660e01b815260040161260190613821565b60206040518083038186803b15801561261957600080fd5b505afa15801561262d573d6000803e3d6000fd5b505050506040513d601f19601f820116820180604052508101906126519190612ef7565b61267c64e8d4a5100086898151811061266657fe5b602002602001015161205890919063ffffffff16565b61289a565b83806001019450505b8080600101915050612511565b50505050505050505050505050565b6000806000905060005b83518110156126f6576126e76126d88583815181106126cb57fe5b6020026020010151612a80565b8361216490919063ffffffff16565b915080806001019150506126b0565b5061270a8182611fd290919063ffffffff16565b915050919050565b606060006127208484612ae2565b905060608367ffffffffffffffff8111801561273b57600080fd5b5060405190808252806020026020018201604052801561276a5781602001602082028036833780820191505090505b50905060005b848110156127c35761279e8387838151811061278857fe5b602002602001015161205890919063ffffffff16565b8282815181106127aa57fe5b6020026020010181815250508080600101915050612770565b50809250505092915050565b606060006127e9620f42408561205890919063ffffffff16565b90506060835167ffffffffffffffff8111801561280557600080fd5b506040519080825280602002602001820160405280156128345781602001602082028036833780820191505090505b50905060005b845181101561288e5761286985828151811061285257fe5b602002602001015184611fd290919063ffffffff16565b82828151811061287557fe5b602002602001018181525050808060010191505061283a565b50809250505092915050565b6000600260009054906101000a900473ffffffffffffffffffffffffffffffffffffffff1673ffffffffffffffffffffffffffffffffffffffff16630261bf8b6040518163ffffffff1660e01b815260040160206040518083038186803b15801561290457600080fd5b505afa158015612918573d6000803e3d6000fd5b505050506040513d601f19601f8201168201806040525081019061293c9190612ef7565b905060008173ffffffffffffffffffffffffffffffffffffffff166335ea6a75856040518263ffffffff1660e01b81526004016129799190613518565b6101806040518083038186803b15801561299257600080fd5b505afa1580156129a6573d6000803e3d6000fd5b505050506040513d601f19601f820116820180604052508101906129ca919061322d565b610120015190508073ffffffffffffffffffffffffffffffffffffffff1663c04a8a1086856040518363ffffffff1660e01b8152600401612a0c9291906135f3565b600060405180830381600087803b158015612a2657600080fd5b505af1158015612a3a573d6000803e3d6000fd5b505050507fe5541a6b6103d4fa7e021ed54fad39c66f27a76bd13d374cf6240ae6bd0bb72b858585604051612a71939291906135bc565b60405180910390a15050505050565b60006003821115612acf578190506000600160028481612a9c57fe5b040190505b81811015612ac957809150600281828581612ab857fe5b040181612ac157fe5b049050612aa1565b50612add565b60008214612adc57600190505b5b919050565b6000806000905060005b83811015612b2957612b1a858281518110612b0357fe5b60200260200101518361216490919063ffffffff16565b91508080600101915050612aec565b50612b40620f42408261205890919063ffffffff16565b90508091505092915050565b600081359050612b5b81613a68565b92915050565b600081519050612b7081613a68565b92915050565b600082601f830112612b8757600080fd5b8135612b9a612b95826138ad565b61387c565b91508181835260208401935060208101905083856020840282011115612bbf57600080fd5b60005b83811015612bef5781612bd58882612e7a565b845260208401935060208301925050600181019050612bc2565b5050505092915050565b600082601f830112612c0a57600080fd5b8151612c1d612c18826138ad565b61387c565b91508181835260208401935060208101905083856020840282011115612c4257600080fd5b60005b83811015612c725781612c588882612e8f565b845260208401935060208301925050600181019050612c45565b5050505092915050565b600081519050612c8b81613a7f565b92915050565b600081359050612ca081613a96565b92915050565b600082601f830112612cb757600080fd5b8135612cca612cc5826138d9565b61387c565b91508082526020830160208301858383011115612ce657600080fd5b612cf1838284613a43565b50505092915050565b600081359050612d0981613aad565b92915050565b600060208284031215612d2157600080fd5b612d2b602061387c565b90506000612d3b84828501612e8f565b60008301525092915050565b60006101808284031215612d5a57600080fd5b612d6561018061387c565b90506000612d7584828501612d0f565b6000830152506020612d8984828501612e65565b6020830152506040612d9d84828501612e65565b6040830152506060612db184828501612e65565b6060830152506080612dc584828501612e65565b60808301525060a0612dd984828501612e65565b60a08301525060c0612ded84828501612ea4565b60c08301525060e0612e0184828501612b61565b60e083015250610100612e1684828501612b61565b61010083015250610120612e2c84828501612b61565b61012083015250610140612e4284828501612b61565b61014083015250610160612e5884828501612eb9565b6101608301525092915050565b600081519050612e7481613abd565b92915050565b600081359050612e8981613ad4565b92915050565b600081519050612e9e81613ad4565b92915050565b600081519050612eb381613aeb565b92915050565b600081519050612ec881613b02565b92915050565b600060208284031215612ee057600080fd5b6000612eee84828501612b4c565b91505092915050565b600060208284031215612f0957600080fd5b6000612f1784828501612b61565b91505092915050565b60008060408385031215612f3357600080fd5b6000612f4185828601612b4c565b9250506020612f5285828601612b4c565b9150509250929050565b600080600080600060a08688031215612f7457600080fd5b6000612f8288828901612b4c565b9550506020612f9388828901612b4c565b945050604086013567ffffffffffffffff811115612fb057600080fd5b612fbc88828901612b76565b935050606086013567ffffffffffffffff811115612fd957600080fd5b612fe588828901612b76565b925050608086013567ffffffffffffffff81111561300257600080fd5b61300e88828901612ca6565b9150509295509295909350565b600080600080600060a0868803121561303357600080fd5b600061304188828901612b4c565b955050602061305288828901612b4c565b945050604061306388828901612e7a565b935050606061307488828901612e7a565b925050608086013567ffffffffffffffff81111561309157600080fd5b61309d88828901612ca6565b9150509295509295909350565b6000602082840312156130bc57600080fd5b600082015167ffffffffffffffff8111156130d657600080fd5b6130e284828501612bf9565b91505092915050565b6000602082840312156130fd57600080fd5b600061310b84828501612c7c565b91505092915050565b60006020828403121561312657600080fd5b600061313484828501612c91565b91505092915050565b60006020828403121561314f57600080fd5b600061315d84828501612cfa565b91505092915050565b6000806040838503121561317957600080fd5b600061318785828601612cfa565b925050602061319885828601612b4c565b9150509250929050565b600080604083850312156131b557600080fd5b60006131c385828601612cfa565b92505060206131d485828601612e7a565b9150509250929050565b6000806000606084860312156131f357600080fd5b600061320186828701612cfa565b935050602061321286828701612e7a565b925050604061322386828701612e7a565b9150509250925092565b6000610180828403121561324057600080fd5b600061324e84828501612d47565b91505092915050565b60006020828403121561326957600080fd5b600061327784828501612e8f565b91505092915050565b60008060008060008060c0878903121561329957600080fd5b60006132a789828a01612e8f565b96505060206132b889828a01612e8f565b95505060406132c989828a01612e8f565b94505060606132da89828a01612e8f565b93505060806132eb89828a01612e8f565b92505060a06132fc89828a01612e8f565b9150509295509295509295565b613312816139e9565b82525050565b6133218161391a565b82525050565b6133308161392c565b82525050565b61333f81613938565b82525050565b61334e816139fb565b82525050565b61335d81613a0d565b82525050565b6000613370601583613909565b91507f53656e646572206e6f74206d696c6573746f6e657300000000000000000000006000830152602082019050919050565b60006133b0601b83613909565b91507f4d696c6573746f6e657320616c7265616479206465706c6f79656400000000006000830152602082019050919050565b60006133f0600383613909565b91507f44414900000000000000000000000000000000000000000000000000000000006000830152602082019050919050565b6000613430602683613909565b91507f596f7520646f6e2774206861766520656e6f7567682066756e647320746f206960008301527f6e766573742e00000000000000000000000000000000000000000000000000006020830152604082019050919050565b6000613496600483613909565b91507f55534443000000000000000000000000000000000000000000000000000000006000830152602082019050919050565b60006134d6601683613909565b91507f54656d706c617465206e6f7420737065636966696564000000000000000000006000830152602082019050919050565b613512816139c1565b82525050565b600060208201905061352d6000830184613318565b92915050565b60006020820190506135486000830184613309565b92915050565b60006060820190506135636000830186613309565b6135706020830185613318565b61357d6040830184613509565b949350505050565b600060608201905061359a6000830186613318565b6135a76020830185613318565b6135b46040830184613318565b949350505050565b60006060820190506135d16000830186613318565b6135de6020830185613318565b6135eb6040830184613509565b949350505050565b60006040820190506136086000830185613318565b6136156020830184613509565b9392505050565b60006080820190506136316000830187613318565b61363e6020830186613509565b61364b6040830185613318565b6136586060830184613354565b95945050505050565b60006020820190506136766000830184613327565b92915050565b60006020820190506136916000830184613336565b92915050565b60006020820190506136ac6000830184613345565b92915050565b60006040820190506136c76000830185613345565b6136d46020830184613309565b9392505050565b600060c0820190506136f06000830188613345565b6136fd6020830187613309565b818103604083015261370e816133e3565b905061371d6060830186613509565b61372a6080830185613509565b61373760a0830184613509565b9695505050505050565b60006060820190506137566000830186613345565b6137636020830185613318565b6137706040830184613318565b949350505050565b600060408201905061378d6000830185613345565b61379a6020830184613509565b9392505050565b600060208201905081810360008301526137ba81613363565b9050919050565b600060208201905081810360008301526137da816133a3565b9050919050565b600060208201905081810360008301526137fa816133e3565b9050919050565b6000602082019050818103600083015261381a81613423565b9050919050565b6000602082019050818103600083015261383a81613489565b9050919050565b6000602082019050818103600083015261385a816134c9565b9050919050565b60006020820190506138766000830184613509565b92915050565b6000604051905081810181811067ffffffffffffffff821117156138a3576138a2613a52565b5b8060405250919050565b600067ffffffffffffffff8211156138c8576138c7613a52565b5b602082029050602081019050919050565b600067ffffffffffffffff8211156138f4576138f3613a52565b5b601f19601f8301169050602081019050919050565b600082825260208201905092915050565b6000613925826139a1565b9050919050565b60008115159050919050565b60007fffffffff0000000000000000000000000000000000000000000000000000000082169050919050565b600081905061397282613a54565b919050565b60006fffffffffffffffffffffffffffffffff82169050919050565b600061ffff82169050919050565b600073ffffffffffffffffffffffffffffffffffffffff82169050919050565b6000819050919050565b600064ffffffffff82169050919050565b600060ff82169050919050565b60006139f482613a1f565b9050919050565b6000613a0682613964565b9050919050565b6000613a1882613993565b9050919050565b6000613a2a82613a31565b9050919050565b6000613a3c826139a1565b9050919050565b82818337600083830152505050565bfe5b60048110613a6557613a64613a52565b5b50565b613a718161391a565b8114613a7c57600080fd5b50565b613a888161392c565b8114613a9357600080fd5b50565b613a9f81613938565b8114613aaa57600080fd5b50565b60048110613aba57600080fd5b50565b613ac681613977565b8114613ad157600080fd5b50565b613add816139c1565b8114613ae857600080fd5b50565b613af4816139cb565b8114613aff57600080fd5b50565b613b0b816139dc565b8114613b1657600080fd5b5056fe536166654d6174683a206d756c7469706c69636174696f6e206f766572666c6f77a264697066735822122057b098aec27a18e8555acfe5ec3cbb9ded8b3a9049b1bfcb1c3d4b0ef54c5d7a64736f6c6343000704003360806040523480156200001157600080fd5b5060405162003c0038038062003c00833981810160405260208110156200003757600080fd5b81019080805160405193929190846401000000008211156200005857600080fd5b838201915060208201858111156200006f57600080fd5b82518660018202830111640100000000821117156200008d57600080fd5b8083526020830192505050908051906020019080838360005b83811015620000c3578082015181840152602081019050620000a6565b50505050905090810190601f168015620000f15780820380516001836020036101000a031916815260200191505b506040525050508080620001126301ffc9a760e01b6200019d60201b60201c565b6200012381620002a660201b60201c565b6200013b63d9b67a2660e01b6200019d60201b60201c565b62000153630e89341c60e01b6200019d60201b60201c565b5033600560006101000a81548173ffffffffffffffffffffffffffffffffffffffff021916908373ffffffffffffffffffffffffffffffffffffffff160217905550505062000378565b63ffffffff60e01b817bffffffffffffffffffffffffffffffffffffffffffffffffffffffff191614156200023a576040517f08c379a000000000000000000000000000000000000000000000000000000000815260040180806020018281038252601c8152602001807f4552433136353a20696e76616c696420696e746572666163652069640000000081525060200191505060405180910390fd5b6001600080837bffffffffffffffffffffffffffffffffffffffffffffffffffffffff19167bffffffffffffffffffffffffffffffffffffffffffffffffffffffff1916815260200190815260200160002060006101000a81548160ff02191690831515021790555050565b8060039080519060200190620002be929190620002c2565b5050565b828054600181600116156101000203166002900490600052602060002090601f016020900481019282620002fa576000855562000346565b82601f106200031557805160ff191683800117855562000346565b8280016001018555821562000346579182015b828111156200034557825182559160200191906001019062000328565b5b50905062000355919062000359565b5090565b5b80821115620003745760008160009055506001016200035a565b5090565b61387880620003886000396000f3fe608060405234801561001057600080fd5b50600436106101155760003560e01c8063776bd459116100a2578063acbc9b8611610071578063acbc9b8614610851578063d3ea1bd814610896578063e985e9c5146108db578063f242432a14610955578063f26748e214610a6457610115565b8063776bd45914610746578063857996331461078157806392d2f118146107d0578063a22cb4651461080157610115565b8063273e0ad3116100e9578063273e0ad3146102c15780632d45a5b9146102f55780632eb2c2d61461033d5780634e1273f4146105605780635549fa581461070157610115565b8062fdd58e1461011a57806301ffc9a71461017c578063042793a2146101df5780630e89341c1461021a575b600080fd5b6101666004803603604081101561013057600080fd5b81019080803573ffffffffffffffffffffffffffffffffffffffff16906020019092919080359060200190929190505050610a9f565b6040518082815260200191505060405180910390f35b6101c76004803603602081101561019257600080fd5b8101908080357bffffffffffffffffffffffffffffffffffffffffffffffffffffffff19169060200190929190505050610b7f565b60405180821515815260200191505060405180910390f35b610218600480360360408110156101f557600080fd5b81019080803560ff16906020019092919080359060200190929190505050610be6565b005b6102466004803603602081101561023057600080fd5b8101908080359060200190929190505050610f2f565b6040518080602001828103825283818151815260200191508051906020019080838360005b8381101561028657808201518184015260208101905061026b565b50505050905090810190601f1680156102b35780820380516001836020036101000a031916815260200191505b509250505060405180910390f35b6102c9610fd3565b604051808273ffffffffffffffffffffffffffffffffffffffff16815260200191505060405180910390f35b6103246004803603602081101561030b57600080fd5b81019080803560ff169060200190929190505050610ff9565b604051808260ff16815260200191505060405180910390f35b61055e600480360360a081101561035357600080fd5b81019080803573ffffffffffffffffffffffffffffffffffffffff169060200190929190803573ffffffffffffffffffffffffffffffffffffffff169060200190929190803590602001906401000000008111156103b057600080fd5b8201836020820111156103c257600080fd5b803590602001918460208302840111640100000000831117156103e457600080fd5b919080806020026020016040519081016040528093929190818152602001838360200280828437600081840152601f19601f8201169050808301925050505050505091929192908035906020019064010000000081111561044457600080fd5b82018360208201111561045657600080fd5b8035906020019184602083028401116401000000008311171561047857600080fd5b919080806020026020016040519081016040528093929190818152602001838360200280828437600081840152601f19601f820116905080830192505050505050509192919290803590602001906401000000008111156104d857600080fd5b8201836020820111156104ea57600080fd5b8035906020019184600183028401116401000000008311171561050c57600080fd5b91908080601f016020809104026020016040519081016040528093929190818152602001838380828437600081840152601f19601f82011690508083019250505050505050919291929050505061105a565b005b6106aa6004803603604081101561057657600080fd5b810190808035906020019064010000000081111561059357600080fd5b8201836020820111156105a557600080fd5b803590602001918460208302840111640100000000831117156105c757600080fd5b919080806020026020016040519081016040528093929190818152602001838360200280828437600081840152601f19601f8201169050808301925050505050505091929192908035906020019064010000000081111561062757600080fd5b82018360208201111561063957600080fd5b8035906020019184602083028401116401000000008311171561065b57600080fd5b919080806020026020016040519081016040528093929190818152602001838360200280828437600081840152601f19601f8201169050808301925050505050505091929192905050506114e5565b6040518080602001828103825283818151815260200191508051906020019060200280838360005b838110156106ed5780820151818401526020810190506106d2565b505050509050019250505060405180910390f35b6107306004803603602081101561071757600080fd5b81019080803560ff1690602001909291905050506115f7565b6040518082815260200191505060405180910390f35b61077f6004803603604081101561075c57600080fd5b81019080803560ff169060200190929190803590602001909291905050506116ac565b005b6107ba6004803603604081101561079757600080fd5b81019080803560ff169060200190929190803590602001909291905050506119d9565b6040518082815260200191505060405180910390f35b6107ff600480360360208110156107e657600080fd5b81019080803560ff169060200190929190505050611a0a565b005b61084f6004803603604081101561081757600080fd5b81019080803573ffffffffffffffffffffffffffffffffffffffff169060200190929190803515159060200190929190505050611c68565b005b6108806004803603602081101561086757600080fd5b81019080803560ff169060200190929190505050611e01565b6040518082815260200191505060405180910390f35b6108c5600480360360208110156108ac57600080fd5b81019080803560ff169060200190929190505050612045565b6040518082815260200191505060405180910390f35b61093d600480360360408110156108f157600080fd5b81019080803573ffffffffffffffffffffffffffffffffffffffff169060200190929190803573ffffffffffffffffffffffffffffffffffffffff1690602001909291905050506120cd565b60405180821515815260200191505060405180910390f35b610a62600480360360a081101561096b57600080fd5b81019080803573ffffffffffffffffffffffffffffffffffffffff169060200190929190803573ffffffffffffffffffffffffffffffffffffffff1690602001909291908035906020019092919080359060200190929190803590602001906401000000008111156109dc57600080fd5b8201836020820111156109ee57600080fd5b80359060200191846001830284011164010000000083111715610a1057600080fd5b91908080601f016020809104026020016040519081016040528093929190818152602001838380828437600081840152601f19601f820116905080830192505050505050509192919290505050612161565b005b610a9d60048036036040811015610a7a57600080fd5b81019080803560ff169060200190929190803590602001909291905050506124d6565b005b60008073ffffffffffffffffffffffffffffffffffffffff168373ffffffffffffffffffffffffffffffffffffffff161415610b26576040517f08c379a000000000000000000000000000000000000000000000000000000000815260040180806020018281038252602b81526020018061368c602b913960400191505060405180910390fd5b6001600083815260200190815260200160002060008473ffffffffffffffffffffffffffffffffffffffff1673ffffffffffffffffffffffffffffffffffffffff16815260200190815260200160002054905092915050565b6000806000837bffffffffffffffffffffffffffffffffffffffffffffffffffffffff19167bffffffffffffffffffffffffffffffffffffffffffffffffffffffff1916815260200190815260200160002060009054906101000a900460ff169050919050565b600560009054906101000a900473ffffffffffffffffffffffffffffffffffffffff1673ffffffffffffffffffffffffffffffffffffffff163373ffffffffffffffffffffffffffffffffffffffff1614610ca9576040517f08c379a00000000000000000000000000000000000000000000000000000000081526004018080602001828103825260168152602001807f4f6e6c79205132542063616e206164642066756e64730000000000000000000081525060200191505060405180910390fd5b60008111610d1f576040517f08c379a00000000000000000000000000000000000000000000000000000000081526004018080602001828103825260108152602001807f416d6f756e742063616e7420626520300000000000000000000000000000000081525060200191505060405180910390fd5b6000610d2a83610ff9565b90506000610d5d600560009054906101000a900473ffffffffffffffffffffffffffffffffffffffff168360ff16610a9f565b1415610e3357610da4600560009054906101000a900473ffffffffffffffffffffffffffffffffffffffff168260ff1660016040518060200160405280600081525061279d565b600660008260ff1660ff1681526020019081526020016000208290806001815401808255809150506001900390600052602060002001600090919091909150557fb88b2f8422530a1fc73d529b0c504dd332558e7ac7348d6c8cc1235d137cc8ae838360405180836003811115610e1757fe5b81526020018281526020019250505060405180910390a1610f2a565b610e7582600660008460ff1660ff168152602001908152602001600020600081548110610e5c57fe5b90600052602060002001546129a090919063ffffffff16565b600660008360ff1660ff168152602001908152602001600020600081548110610e9a57fe5b90600052602060002001819055507f84e8347f09855bfdb2091aedb9695fd768c3a25a47af2f629c09d625aaed0d978383600660008560ff1660ff168152602001908152602001600020600081548110610ef057fe5b906000526020600020015460405180846003811115610f0b57fe5b8152602001838152602001828152602001935050505060405180910390a15b505050565b606060038054600181600116156101000203166002900480601f016020809104026020016040519081016040528092919081815260200182805460018160011615610100020316600290048015610fc75780601f10610f9c57610100808354040283529160200191610fc7565b820191906000526020600020905b815481529060010190602001808311610faa57829003601f168201915b50505050509050919050565b600560009054906101000a900473ffffffffffffffffffffffffffffffffffffffff1681565b6000611003613539565b6040518060800160405280600060ff168152602001600460ff168152602001600560ff168152602001600660ff1681525090508083600381111561104357fe5b6004811061104d57fe5b6020020151915050919050565b81518351146110b4576040517f08c379a00000000000000000000000000000000000000000000000000000000081526004018080602001828103825260288152602001806137fa6028913960400191505060405180910390fd5b600073ffffffffffffffffffffffffffffffffffffffff168473ffffffffffffffffffffffffffffffffffffffff16141561113a576040517f08c379a00000000000000000000000000000000000000000000000000000000081526004018080602001828103825260258152602001806137046025913960400191505060405180910390fd5b611142612a28565b73ffffffffffffffffffffffffffffffffffffffff168573ffffffffffffffffffffffffffffffffffffffff161480611188575061118785611182612a28565b6120cd565b5b6111dd576040517f08c379a00000000000000000000000000000000000000000000000000000000081526004018080602001828103825260328152602001806137296032913960400191505060405180910390fd5b60006111e7612a28565b90506111f7818787878787612a30565b60005b84518110156113c857600085828151811061121157fe5b60200260200101519050600085838151811061122957fe5b602002602001015190506112b0816040518060600160405280602a815260200161377e602a91396001600086815260200190815260200160002060008d73ffffffffffffffffffffffffffffffffffffffff1673ffffffffffffffffffffffffffffffffffffffff16815260200190815260200160002054612a389092919063ffffffff16565b6001600084815260200190815260200160002060008b73ffffffffffffffffffffffffffffffffffffffff1673ffffffffffffffffffffffffffffffffffffffff16815260200190815260200160002081905550611367816001600085815260200190815260200160002060008b73ffffffffffffffffffffffffffffffffffffffff1673ffffffffffffffffffffffffffffffffffffffff168152602001908152602001600020546129a090919063ffffffff16565b6001600084815260200190815260200160002060008a73ffffffffffffffffffffffffffffffffffffffff1673ffffffffffffffffffffffffffffffffffffffff1681526020019081526020016000208190555050508060010190506111fa565b508473ffffffffffffffffffffffffffffffffffffffff168673ffffffffffffffffffffffffffffffffffffffff168273ffffffffffffffffffffffffffffffffffffffff167f4a39dc06d4c0dbc64b70af90fd698a233a518aa5d07e595d983b8c0526c8f7fb8787604051808060200180602001838103835285818151815260200191508051906020019060200280838360005b8381101561147857808201518184015260208101905061145d565b50505050905001838103825284818151815260200191508051906020019060200280838360005b838110156114ba57808201518184015260208101905061149f565b5050505090500194505050505060405180910390a46114dd818787878787612af2565b505050505050565b60608151835114611541576040517f08c379a00000000000000000000000000000000000000000000000000000000081526004018080602001828103825260298152602001806137d16029913960400191505060405180910390fd5b6060835167ffffffffffffffff8111801561155b57600080fd5b5060405190808252806020026020018201604052801561158a5781602001602082028036833780820191505090505b50905060005b84518110156115ec576115c98582815181106115a857fe5b60200260200101518583815181106115bc57fe5b6020026020010151610a9f565b8282815181106115d557fe5b602002602001018181525050806001019050611590565b508091505092915050565b600080611631600560009054906101000a900473ffffffffffffffffffffffffffffffffffffffff1684600381111561162c57fe5b610a9f565b141561164057600090506116a7565b6006600083600381111561165057fe5b60ff1660ff16815260200190815260200160002060016006600085600381111561167657fe5b60ff1660ff16815260200190815260200160002080549050038154811061169957fe5b906000526020600020015490505b919050565b600560009054906101000a900473ffffffffffffffffffffffffffffffffffffffff1673ffffffffffffffffffffffffffffffffffffffff163373ffffffffffffffffffffffffffffffffffffffff161461176f576040517f08c379a00000000000000000000000000000000000000000000000000000000081526004018080602001828103825260168152602001807f4f6e6c79205132542063616e206164642066756e64730000000000000000000081525060200191505060405180910390fd5b60016117a8600560009054906101000a900473ffffffffffffffffffffffffffffffffffffffff168460038111156117a357fe5b610a9f565b1461181b576040517f08c379a00000000000000000000000000000000000000000000000000000000081526004018080602001828103825260198152602001807f54656d706c61746520746f6b656e206e6f74206d696e7465640000000000000081525060200191505060405180910390fd5b60008111611891576040517f08c379a00000000000000000000000000000000000000000000000000000000081526004018080602001828103825260108152602001807f416d6f756e742063616e7420626520300000000000000000000000000000000081525060200191505060405180910390fd5b60006001600660008560038111156118a557fe5b60ff1660ff1681526020019081526020016000208054905003905061190c82600660008660038111156118d457fe5b60ff1660ff16815260200190815260200160002083815481106118f357fe5b90600052602060002001546129a090919063ffffffff16565b6006600085600381111561191c57fe5b60ff1660ff168152602001908152602001600020828154811061193b57fe5b90600052602060002001819055507f84e8347f09855bfdb2091aedb9695fd768c3a25a47af2f629c09d625aaed0d9783836006600087600381111561197c57fe5b60ff1660ff168152602001908152602001600020848154811061199b57fe5b9060005260206000200154604051808460038111156119b657fe5b8152602001838152602001828152602001935050505060405180910390a1505050565b600660205281600052604060002081815481106119f557600080fd5b90600052602060002001600091509150505481565b600560009054906101000a900473ffffffffffffffffffffffffffffffffffffffff1673ffffffffffffffffffffffffffffffffffffffff163373ffffffffffffffffffffffffffffffffffffffff1614611acd576040517f08c379a000000000000000000000000000000000000000000000000000000000815260040180806020018281038252601a8152602001807f4f6e6c79205132542063616e206275726e20747265617375727900000000000081525060200191505060405180910390fd5b6001611b06600560009054906101000a900473ffffffffffffffffffffffffffffffffffffffff16836003811115611b0157fe5b610a9f565b14611b79576040517f08c379a00000000000000000000000000000000000000000000000000000000081526004018080602001828103825260198152602001807f54656d706c61746520746f6b656e206e6f74206d696e7465640000000000000081525060200191505060405180910390fd5b600060066000836003811115611b8b57fe5b60ff1660ff168152602001908152602001600020600160066000856003811115611bb157fe5b60ff1660ff168152602001908152602001600020805490500381548110611bd457fe5b90600052602060002001549050611c1a600560009054906101000a900473ffffffffffffffffffffffffffffffffffffffff16836003811115611c1357fe5b6001612e81565b7f4ce73d014affe1647be9e8d5b08fc210e2edeac078dac8995fe5a73bde2b7f5f828260405180836003811115611c4d57fe5b81526020018281526020019250505060405180910390a15050565b8173ffffffffffffffffffffffffffffffffffffffff16611c87612a28565b73ffffffffffffffffffffffffffffffffffffffff161415611cf4576040517f08c379a00000000000000000000000000000000000000000000000000000000081526004018080602001828103825260298152602001806137a86029913960400191505060405180910390fd5b8060026000611d01612a28565b73ffffffffffffffffffffffffffffffffffffffff1673ffffffffffffffffffffffffffffffffffffffff16815260200190815260200160002060008473ffffffffffffffffffffffffffffffffffffffff1673ffffffffffffffffffffffffffffffffffffffff16815260200190815260200160002060006101000a81548160ff0219169083151502179055508173ffffffffffffffffffffffffffffffffffffffff16611dae612a28565b73ffffffffffffffffffffffffffffffffffffffff167f17307eab39ab6107e8899845ad3d59bd9653f200f220920489ca2b5937696c318360405180821515815260200191505060405180910390a35050565b6000600560009054906101000a900473ffffffffffffffffffffffffffffffffffffffff1673ffffffffffffffffffffffffffffffffffffffff163373ffffffffffffffffffffffffffffffffffffffff1614611ec6576040517f08c379a00000000000000000000000000000000000000000000000000000000081526004018080602001828103825260168152602001807f4f6e6c79205132542063616e206765742066756e64730000000000000000000081525060200191505060405180910390fd5b6001611eff600560009054906101000a900473ffffffffffffffffffffffffffffffffffffffff16846003811115611efa57fe5b610a9f565b14611f72576040517f08c379a00000000000000000000000000000000000000000000000000000000081526004018080602001828103825260198152602001807f54656d706c61746520746f6b656e206e6f74206d696e7465640000000000000081525060200191505060405180910390fd5b6000611f7d83610ff9565b90506000611fc46002600660008560ff1660ff168152602001908152602001600020600081548110611fab57fe5b906000526020600020015461309d90919063ffffffff16565b905061200881600660008560ff1660ff168152602001908152602001600020600081548110611fef57fe5b906000526020600020015461312690919063ffffffff16565b600660008460ff1660ff16815260200190815260200160002060008154811061202d57fe5b90600052602060002001819055508092505050919050565b60008061205183610ff9565b90506000612084600560009054906101000a900473ffffffffffffffffffffffffffffffffffffffff168360ff16610a9f565b14156120945760009150506120c8565b600660008260ff1660ff1681526020019081526020016000206000815481106120b957fe5b90600052602060002001549150505b919050565b6000600260008473ffffffffffffffffffffffffffffffffffffffff1673ffffffffffffffffffffffffffffffffffffffff16815260200190815260200160002060008373ffffffffffffffffffffffffffffffffffffffff1673ffffffffffffffffffffffffffffffffffffffff16815260200190815260200160002060009054906101000a900460ff16905092915050565b600073ffffffffffffffffffffffffffffffffffffffff168473ffffffffffffffffffffffffffffffffffffffff1614156121e7576040517f08c379a00000000000000000000000000000000000000000000000000000000081526004018080602001828103825260258152602001806137046025913960400191505060405180910390fd5b6121ef612a28565b73ffffffffffffffffffffffffffffffffffffffff168573ffffffffffffffffffffffffffffffffffffffff16148061223557506122348561222f612a28565b6120cd565b5b61228a576040517f08c379a00000000000000000000000000000000000000000000000000000000081526004018080602001828103825260298152602001806136db6029913960400191505060405180910390fd5b6000612294612a28565b90506122b48187876122a5886131a9565b6122ae886131a9565b87612a30565b612331836040518060600160405280602a815260200161377e602a91396001600088815260200190815260200160002060008a73ffffffffffffffffffffffffffffffffffffffff1673ffffffffffffffffffffffffffffffffffffffff16815260200190815260200160002054612a389092919063ffffffff16565b6001600086815260200190815260200160002060008873ffffffffffffffffffffffffffffffffffffffff1673ffffffffffffffffffffffffffffffffffffffff168152602001908152602001600020819055506123e8836001600087815260200190815260200160002060008873ffffffffffffffffffffffffffffffffffffffff1673ffffffffffffffffffffffffffffffffffffffff168152602001908152602001600020546129a090919063ffffffff16565b6001600086815260200190815260200160002060008773ffffffffffffffffffffffffffffffffffffffff1673ffffffffffffffffffffffffffffffffffffffff168152602001908152602001600020819055508473ffffffffffffffffffffffffffffffffffffffff168673ffffffffffffffffffffffffffffffffffffffff168273ffffffffffffffffffffffffffffffffffffffff167fc3d58168c5ae7397731d063d5bbf3d657854427343f4c083240f7aacaa2d0f628787604051808381526020018281526020019250505060405180910390a46124ce818787878787613219565b505050505050565b600560009054906101000a900473ffffffffffffffffffffffffffffffffffffffff1673ffffffffffffffffffffffffffffffffffffffff163373ffffffffffffffffffffffffffffffffffffffff1614612599576040517f08c379a00000000000000000000000000000000000000000000000000000000081526004018080602001828103825260118152602001807f4f6e6c79205132542063616e206d696e7400000000000000000000000000000081525060200191505060405180910390fd5b6000811161260f576040517f08c379a00000000000000000000000000000000000000000000000000000000081526004018080602001828103825260108152602001807f416d6f756e742063616e7420626520300000000000000000000000000000000081525060200191505060405180910390fd5b6000612648600560009054906101000a900473ffffffffffffffffffffffffffffffffffffffff1684600381111561264357fe5b610a9f565b146126bb576040517f08c379a000000000000000000000000000000000000000000000000000000000815260040180806020018281038252601a8152602001807f54656d706c61746520616c72656164792068617320746f6b656e00000000000081525060200191505060405180910390fd5b612704600560009054906101000a900473ffffffffffffffffffffffffffffffffffffffff168360038111156126ed57fe5b60016040518060200160405280600081525061279d565b6006600083600381111561271457fe5b60ff1660ff1681526020019081526020016000208190806001815401808255809150506001900390600052602060002001600090919091909150557f32037f9d900298ca13908135e59075a7caac9f46b80a42da749c1b3b94513df382826040518083600381111561278257fe5b81526020018281526020019250505060405180910390a15050565b600073ffffffffffffffffffffffffffffffffffffffff168473ffffffffffffffffffffffffffffffffffffffff161415612823576040517f08c379a00000000000000000000000000000000000000000000000000000000081526004018080602001828103825260218152602001806138226021913960400191505060405180910390fd5b600061282d612a28565b905061284e8160008761283f886131a9565b612848886131a9565b87612a30565b6128b1836001600087815260200190815260200160002060008873ffffffffffffffffffffffffffffffffffffffff1673ffffffffffffffffffffffffffffffffffffffff168152602001908152602001600020546129a090919063ffffffff16565b6001600086815260200190815260200160002060008773ffffffffffffffffffffffffffffffffffffffff1673ffffffffffffffffffffffffffffffffffffffff168152602001908152602001600020819055508473ffffffffffffffffffffffffffffffffffffffff16600073ffffffffffffffffffffffffffffffffffffffff168273ffffffffffffffffffffffffffffffffffffffff167fc3d58168c5ae7397731d063d5bbf3d657854427343f4c083240f7aacaa2d0f628787604051808381526020018281526020019250505060405180910390a461299981600087878787613219565b5050505050565b600080828401905083811015612a1e576040517f08c379a000000000000000000000000000000000000000000000000000000000815260040180806020018281038252601b8152602001807f536166654d6174683a206164646974696f6e206f766572666c6f77000000000081525060200191505060405180910390fd5b8091505092915050565b600033905090565b505050505050565b6000838311158290612ae5576040517f08c379a00000000000000000000000000000000000000000000000000000000081526004018080602001828103825283818151815260200191508051906020019080838360005b83811015612aaa578082015181840152602081019050612a8f565b50505050905090810190601f168015612ad75780820380516001836020036101000a031916815260200191505b509250505060405180910390fd5b5082840390509392505050565b612b118473ffffffffffffffffffffffffffffffffffffffff16613526565b15612e79578373ffffffffffffffffffffffffffffffffffffffff1663bc197c8187878686866040518663ffffffff1660e01b8152600401808673ffffffffffffffffffffffffffffffffffffffff1681526020018573ffffffffffffffffffffffffffffffffffffffff168152602001806020018060200180602001848103845287818151815260200191508051906020019060200280838360005b83811015612bc9578082015181840152602081019050612bae565b50505050905001848103835286818151815260200191508051906020019060200280838360005b83811015612c0b578082015181840152602081019050612bf0565b50505050905001848103825285818151815260200191508051906020019080838360005b83811015612c4a578082015181840152602081019050612c2f565b50505050905090810190601f168015612c775780820380516001836020036101000a031916815260200191505b5098505050505050505050602060405180830381600087803b158015612c9c57600080fd5b505af1925050508015612cd057506040513d6020811015612cbc57600080fd5b810190808051906020019092919050505060015b612dda57612cdc613579565b80612ce75750612d89565b806040517f08c379a00000000000000000000000000000000000000000000000000000000081526004018080602001828103825283818151815260200191508051906020019080838360005b83811015612d4e578082015181840152602081019050612d33565b50505050905090810190601f168015612d7b5780820380516001836020036101000a031916815260200191505b509250505060405180910390fd5b6040517f08c379a00000000000000000000000000000000000000000000000000000000081526004018080602001828103825260348152602001806136306034913960400191505060405180910390fd5b63bc197c8160e01b7bffffffffffffffffffffffffffffffffffffffffffffffffffffffff1916817bffffffffffffffffffffffffffffffffffffffffffffffffffffffff191614612e77576040517f08c379a00000000000000000000000000000000000000000000000000000000081526004018080602001828103825260288152602001806136646028913960400191505060405180910390fd5b505b505050505050565b600073ffffffffffffffffffffffffffffffffffffffff168373ffffffffffffffffffffffffffffffffffffffff161415612f07576040517f08c379a000000000000000000000000000000000000000000000000000000000815260040180806020018281038252602381526020018061375b6023913960400191505060405180910390fd5b6000612f11612a28565b9050612f4181856000612f23876131a9565b612f2c876131a9565b60405180602001604052806000815250612a30565b612fbe826040518060600160405280602481526020016136b7602491396001600087815260200190815260200160002060008873ffffffffffffffffffffffffffffffffffffffff1673ffffffffffffffffffffffffffffffffffffffff16815260200190815260200160002054612a389092919063ffffffff16565b6001600085815260200190815260200160002060008673ffffffffffffffffffffffffffffffffffffffff1673ffffffffffffffffffffffffffffffffffffffff16815260200190815260200160002081905550600073ffffffffffffffffffffffffffffffffffffffff168473ffffffffffffffffffffffffffffffffffffffff168273ffffffffffffffffffffffffffffffffffffffff167fc3d58168c5ae7397731d063d5bbf3d657854427343f4c083240f7aacaa2d0f628686604051808381526020018281526020019250505060405180910390a450505050565b6000808211613114576040517f08c379a000000000000000000000000000000000000000000000000000000000815260040180806020018281038252601a8152602001807f536166654d6174683a206469766973696f6e206279207a65726f00000000000081525060200191505060405180910390fd5b81838161311d57fe5b04905092915050565b60008282111561319e576040517f08c379a000000000000000000000000000000000000000000000000000000000815260040180806020018281038252601e8152602001807f536166654d6174683a207375627472616374696f6e206f766572666c6f77000081525060200191505060405180910390fd5b818303905092915050565b606080600167ffffffffffffffff811180156131c457600080fd5b506040519080825280602002602001820160405280156131f35781602001602082028036833780820191505090505b509050828160008151811061320457fe5b60200260200101818152505080915050919050565b6132388473ffffffffffffffffffffffffffffffffffffffff16613526565b1561351e578373ffffffffffffffffffffffffffffffffffffffff1663f23a6e6187878686866040518663ffffffff1660e01b8152600401808673ffffffffffffffffffffffffffffffffffffffff1681526020018573ffffffffffffffffffffffffffffffffffffffff16815260200184815260200183815260200180602001828103825283818151815260200191508051906020019080838360005b838110156132f15780820151818401526020810190506132d6565b50505050905090810190601f16801561331e5780820380516001836020036101000a031916815260200191505b509650505050505050602060405180830381600087803b15801561334157600080fd5b505af192505050801561337557506040513d602081101561336157600080fd5b810190808051906020019092919050505060015b61347f57613381613579565b8061338c575061342e565b806040517f08c379a00000000000000000000000000000000000000000000000000000000081526004018080602001828103825283818151815260200191508051906020019080838360005b838110156133f35780820151818401526020810190506133d8565b50505050905090810190601f1680156134205780820380516001836020036101000a031916815260200191505b509250505060405180910390fd5b6040517f08c379a00000000000000000000000000000000000000000000000000000000081526004018080602001828103825260348152602001806136306034913960400191505060405180910390fd5b63f23a6e6160e01b7bffffffffffffffffffffffffffffffffffffffffffffffffffffffff1916817bffffffffffffffffffffffffffffffffffffffffffffffffffffffff19161461351c576040517f08c379a00000000000000000000000000000000000000000000000000000000081526004018080602001828103825260288152602001806136646028913960400191505060405180910390fd5b505b505050505050565b600080823b905060008111915050919050565b6040518060800160405280600490602082028036833780820191505090505090565b6000601f19601f8301169050919050565b60008160e01c9050919050565b600060443d10156135895761362c565b60046000803e61359a60005161356c565b6308c379a081146135ab575061362c565b60405160043d036004823e80513d602482011167ffffffffffffffff821117156135d75750505061362c565b808201805167ffffffffffffffff8111156135f657505050505061362c565b8060208301013d85018111156136115750505050505061362c565b61361a8261355b565b60208401016040528296505050505050505b9056fe455243313135353a207472616e7366657220746f206e6f6e2045524331313535526563656976657220696d706c656d656e746572455243313135353a204552433131353552656365697665722072656a656374656420746f6b656e73455243313135353a2062616c616e636520717565727920666f7220746865207a65726f2061646472657373455243313135353a206275726e20616d6f756e7420657863656564732062616c616e6365455243313135353a2063616c6c6572206973206e6f74206f776e6572206e6f7220617070726f766564455243313135353a207472616e7366657220746f20746865207a65726f2061646472657373455243313135353a207472616e736665722063616c6c6572206973206e6f74206f776e6572206e6f7220617070726f766564455243313135353a206275726e2066726f6d20746865207a65726f2061646472657373455243313135353a20696e73756666696369656e742062616c616e636520666f72207472616e73666572455243313135353a2073657474696e6720617070726f76616c2073746174757320666f722073656c66455243313135353a206163636f756e747320616e6420696473206c656e677468206d69736d61746368455243313135353a2069647320616e6420616d6f756e7473206c656e677468206d69736d61746368455243313135353a206d696e7420746f20746865207a65726f2061646472657373a2646970667358221220f5530ee55030f46e275daf491f14b90d3ca888fefde489a5382cbe481627410364736f6c6343000704003360806040523480156200001157600080fd5b506040516200332138038062003321833981810160405260208110156200003757600080fd5b81019080805160405193929190846401000000008211156200005857600080fd5b838201915060208201858111156200006f57600080fd5b82518660018202830111640100000000821117156200008d57600080fd5b8083526020830192505050908051906020019080838360005b83811015620000c3578082015181840152602081019050620000a6565b50505050905090810190601f168015620000f15780820380516001836020036101000a031916815260200191505b5060405250505080620001116301ffc9a760e01b6200019b60201b60201c565b6200012281620002a460201b60201c565b6200013a63d9b67a2660e01b6200019b60201b60201c565b62000152630e89341c60e01b6200019b60201b60201c565b5033600560006101000a81548173ffffffffffffffffffffffffffffffffffffffff021916908373ffffffffffffffffffffffffffffffffffffffff1602179055505062000376565b63ffffffff60e01b817bffffffffffffffffffffffffffffffffffffffffffffffffffffffff1916141562000238576040517f08c379a000000000000000000000000000000000000000000000000000000000815260040180806020018281038252601c8152602001807f4552433136353a20696e76616c696420696e746572666163652069640000000081525060200191505060405180910390fd5b6001600080837bffffffffffffffffffffffffffffffffffffffffffffffffffffffff19167bffffffffffffffffffffffffffffffffffffffffffffffffffffffff1916815260200190815260200160002060006101000a81548160ff02191690831515021790555050565b8060039080519060200190620002bc929190620002c0565b5050565b828054600181600116156101000203166002900490600052602060002090601f016020900481019282620002f8576000855562000344565b82601f106200031357805160ff191683800117855562000344565b8280016001018555821562000344579182015b828111156200034357825182559160200191906001019062000326565b5b50905062000353919062000357565b5090565b5b808211156200037257600081600090555060010162000358565b5090565b612f9b80620003866000396000f3fe608060405234801561001057600080fd5b50600436106100e95760003560e01c8063776bd4591161008c578063a22cb46511610066578063a22cb46514610752578063e985e9c5146107a2578063f242432a1461081c578063f26748e21461092b576100e9565b8063776bd4591461069757806385799633146106d257806392d2f11814610721576100e9565b8063273e0ad3116100c8578063273e0ad31461025a5780632eb2c2d61461028e5780634e1273f4146104b15780635549fa5814610652576100e9565b8062fdd58e146100ee57806301ffc9a7146101505780630e89341c146101b3575b600080fd5b61013a6004803603604081101561010457600080fd5b81019080803573ffffffffffffffffffffffffffffffffffffffff16906020019092919080359060200190929190505050610966565b6040518082815260200191505060405180910390f35b61019b6004803603602081101561016657600080fd5b8101908080357bffffffffffffffffffffffffffffffffffffffffffffffffffffffff19169060200190929190505050610a46565b60405180821515815260200191505060405180910390f35b6101df600480360360208110156101c957600080fd5b8101908080359060200190929190505050610aad565b6040518080602001828103825283818151815260200191508051906020019080838360005b8381101561021f578082015181840152602081019050610204565b50505050905090810190601f16801561024c5780820380516001836020036101000a031916815260200191505b509250505060405180910390f35b610262610b51565b604051808273ffffffffffffffffffffffffffffffffffffffff16815260200191505060405180910390f35b6104af600480360360a08110156102a457600080fd5b81019080803573ffffffffffffffffffffffffffffffffffffffff169060200190929190803573ffffffffffffffffffffffffffffffffffffffff1690602001909291908035906020019064010000000081111561030157600080fd5b82018360208201111561031357600080fd5b8035906020019184602083028401116401000000008311171561033557600080fd5b919080806020026020016040519081016040528093929190818152602001838360200280828437600081840152601f19601f8201169050808301925050505050505091929192908035906020019064010000000081111561039557600080fd5b8201836020820111156103a757600080fd5b803590602001918460208302840111640100000000831117156103c957600080fd5b919080806020026020016040519081016040528093929190818152602001838360200280828437600081840152601f19601f8201169050808301925050505050505091929192908035906020019064010000000081111561042957600080fd5b82018360208201111561043b57600080fd5b8035906020019184600183028401116401000000008311171561045d57600080fd5b91908080601f016020809104026020016040519081016040528093929190818152602001838380828437600081840152601f19601f820116905080830192505050505050509192919290505050610b77565b005b6105fb600480360360408110156104c757600080fd5b81019080803590602001906401000000008111156104e457600080fd5b8201836020820111156104f657600080fd5b8035906020019184602083028401116401000000008311171561051857600080fd5b919080806020026020016040519081016040528093929190818152602001838360200280828437600081840152601f19601f8201169050808301925050505050505091929192908035906020019064010000000081111561057857600080fd5b82018360208201111561058a57600080fd5b803590602001918460208302840111640100000000831117156105ac57600080fd5b919080806020026020016040519081016040528093929190818152602001838360200280828437600081840152601f19601f820116905080830192505050505050509192919290505050611002565b6040518080602001828103825283818151815260200191508051906020019060200280838360005b8381101561063e578082015181840152602081019050610623565b505050509050019250505060405180910390f35b6106816004803603602081101561066857600080fd5b81019080803560ff169060200190929190505050611114565b6040518082815260200191505060405180910390f35b6106d0600480360360408110156106ad57600080fd5b81019080803560ff169060200190929190803590602001909291905050506111c9565b005b61070b600480360360408110156106e857600080fd5b81019080803560ff169060200190929190803590602001909291905050506114f6565b6040518082815260200191505060405180910390f35b6107506004803603602081101561073757600080fd5b81019080803560ff169060200190929190505050611527565b005b6107a06004803603604081101561076857600080fd5b81019080803573ffffffffffffffffffffffffffffffffffffffff169060200190929190803515159060200190929190505050611785565b005b610804600480360360408110156107b857600080fd5b81019080803573ffffffffffffffffffffffffffffffffffffffff169060200190929190803573ffffffffffffffffffffffffffffffffffffffff16906020019092919050505061191e565b60405180821515815260200191505060405180910390f35b610929600480360360a081101561083257600080fd5b81019080803573ffffffffffffffffffffffffffffffffffffffff169060200190929190803573ffffffffffffffffffffffffffffffffffffffff1690602001909291908035906020019092919080359060200190929190803590602001906401000000008111156108a357600080fd5b8201836020820111156108b557600080fd5b803590602001918460018302840111640100000000831117156108d757600080fd5b91908080601f016020809104026020016040519081016040528093929190818152602001838380828437600081840152601f19601f8201169050808301925050505050505091929192905050506119b2565b005b6109646004803603604081101561094157600080fd5b81019080803560ff16906020019092919080359060200190929190505050611d27565b005b60008073ffffffffffffffffffffffffffffffffffffffff168373ffffffffffffffffffffffffffffffffffffffff1614156109ed576040517f08c379a000000000000000000000000000000000000000000000000000000000815260040180806020018281038252602b815260200180612daf602b913960400191505060405180910390fd5b6001600083815260200190815260200160002060008473ffffffffffffffffffffffffffffffffffffffff1673ffffffffffffffffffffffffffffffffffffffff16815260200190815260200160002054905092915050565b6000806000837bffffffffffffffffffffffffffffffffffffffffffffffffffffffff19167bffffffffffffffffffffffffffffffffffffffffffffffffffffffff1916815260200190815260200160002060009054906101000a900460ff169050919050565b606060038054600181600116156101000203166002900480601f016020809104026020016040519081016040528092919081815260200182805460018160011615610100020316600290048015610b455780601f10610b1a57610100808354040283529160200191610b45565b820191906000526020600020905b815481529060010190602001808311610b2857829003601f168201915b50505050509050919050565b600560009054906101000a900473ffffffffffffffffffffffffffffffffffffffff1681565b8151835114610bd1576040517f08c379a0000000000000000000000000000000000000000000000000000000008152600401808060200182810382526028815260200180612f1d6028913960400191505060405180910390fd5b600073ffffffffffffffffffffffffffffffffffffffff168473ffffffffffffffffffffffffffffffffffffffff161415610c57576040517f08c379a0000000000000000000000000000000000000000000000000000000008152600401808060200182810382526025815260200180612e276025913960400191505060405180910390fd5b610c5f611fee565b73ffffffffffffffffffffffffffffffffffffffff168573ffffffffffffffffffffffffffffffffffffffff161480610ca55750610ca485610c9f611fee565b61191e565b5b610cfa576040517f08c379a0000000000000000000000000000000000000000000000000000000008152600401808060200182810382526032815260200180612e4c6032913960400191505060405180910390fd5b6000610d04611fee565b9050610d14818787878787611ff6565b60005b8451811015610ee5576000858281518110610d2e57fe5b602002602001015190506000858381518110610d4657fe5b60200260200101519050610dcd816040518060600160405280602a8152602001612ea1602a91396001600086815260200190815260200160002060008d73ffffffffffffffffffffffffffffffffffffffff1673ffffffffffffffffffffffffffffffffffffffff16815260200190815260200160002054611ffe9092919063ffffffff16565b6001600084815260200190815260200160002060008b73ffffffffffffffffffffffffffffffffffffffff1673ffffffffffffffffffffffffffffffffffffffff16815260200190815260200160002081905550610e84816001600085815260200190815260200160002060008b73ffffffffffffffffffffffffffffffffffffffff1673ffffffffffffffffffffffffffffffffffffffff168152602001908152602001600020546120b890919063ffffffff16565b6001600084815260200190815260200160002060008a73ffffffffffffffffffffffffffffffffffffffff1673ffffffffffffffffffffffffffffffffffffffff168152602001908152602001600020819055505050806001019050610d17565b508473ffffffffffffffffffffffffffffffffffffffff168673ffffffffffffffffffffffffffffffffffffffff168273ffffffffffffffffffffffffffffffffffffffff167f4a39dc06d4c0dbc64b70af90fd698a233a518aa5d07e595d983b8c0526c8f7fb8787604051808060200180602001838103835285818151815260200191508051906020019060200280838360005b83811015610f95578082015181840152602081019050610f7a565b50505050905001838103825284818151815260200191508051906020019060200280838360005b83811015610fd7578082015181840152602081019050610fbc565b5050505090500194505050505060405180910390a4610ffa818787878787612140565b505050505050565b6060815183511461105e576040517f08c379a0000000000000000000000000000000000000000000000000000000008152600401808060200182810382526029815260200180612ef46029913960400191505060405180910390fd5b6060835167ffffffffffffffff8111801561107857600080fd5b506040519080825280602002602001820160405280156110a75781602001602082028036833780820191505090505b50905060005b8451811015611109576110e68582815181106110c557fe5b60200260200101518583815181106110d957fe5b6020026020010151610966565b8282815181106110f257fe5b6020026020010181815250508060010190506110ad565b508091505092915050565b60008061114e600560009054906101000a900473ffffffffffffffffffffffffffffffffffffffff1684600381111561114957fe5b610966565b141561115d57600090506111c4565b6006600083600381111561116d57fe5b60ff1660ff16815260200190815260200160002060016006600085600381111561119357fe5b60ff1660ff1681526020019081526020016000208054905003815481106111b657fe5b906000526020600020015490505b919050565b600560009054906101000a900473ffffffffffffffffffffffffffffffffffffffff1673ffffffffffffffffffffffffffffffffffffffff163373ffffffffffffffffffffffffffffffffffffffff161461128c576040517f08c379a00000000000000000000000000000000000000000000000000000000081526004018080602001828103825260168152602001807f4f6e6c79205132542063616e206164642066756e64730000000000000000000081525060200191505060405180910390fd5b60016112c5600560009054906101000a900473ffffffffffffffffffffffffffffffffffffffff168460038111156112c057fe5b610966565b14611338576040517f08c379a00000000000000000000000000000000000000000000000000000000081526004018080602001828103825260198152602001807f54656d706c61746520746f6b656e206e6f74206d696e7465640000000000000081525060200191505060405180910390fd5b600081116113ae576040517f08c379a00000000000000000000000000000000000000000000000000000000081526004018080602001828103825260108152602001807f416d6f756e742063616e7420626520300000000000000000000000000000000081525060200191505060405180910390fd5b60006001600660008560038111156113c257fe5b60ff1660ff1681526020019081526020016000208054905003905061142982600660008660038111156113f157fe5b60ff1660ff168152602001908152602001600020838154811061141057fe5b90600052602060002001546120b890919063ffffffff16565b6006600085600381111561143957fe5b60ff1660ff168152602001908152602001600020828154811061145857fe5b90600052602060002001819055507f84e8347f09855bfdb2091aedb9695fd768c3a25a47af2f629c09d625aaed0d9783836006600087600381111561149957fe5b60ff1660ff16815260200190815260200160002084815481106114b857fe5b9060005260206000200154604051808460038111156114d357fe5b8152602001838152602001828152602001935050505060405180910390a1505050565b6006602052816000526040600020818154811061151257600080fd5b90600052602060002001600091509150505481565b600560009054906101000a900473ffffffffffffffffffffffffffffffffffffffff1673ffffffffffffffffffffffffffffffffffffffff163373ffffffffffffffffffffffffffffffffffffffff16146115ea576040517f08c379a000000000000000000000000000000000000000000000000000000000815260040180806020018281038252601a8152602001807f4f6e6c79205132542063616e206275726e20747265617375727900000000000081525060200191505060405180910390fd5b6001611623600560009054906101000a900473ffffffffffffffffffffffffffffffffffffffff1683600381111561161e57fe5b610966565b14611696576040517f08c379a00000000000000000000000000000000000000000000000000000000081526004018080602001828103825260198152602001807f54656d706c61746520746f6b656e206e6f74206d696e7465640000000000000081525060200191505060405180910390fd5b6000600660008360038111156116a857fe5b60ff1660ff1681526020019081526020016000206001600660008560038111156116ce57fe5b60ff1660ff1681526020019081526020016000208054905003815481106116f157fe5b90600052602060002001549050611737600560009054906101000a900473ffffffffffffffffffffffffffffffffffffffff1683600381111561173057fe5b60016124cf565b7f4ce73d014affe1647be9e8d5b08fc210e2edeac078dac8995fe5a73bde2b7f5f82826040518083600381111561176a57fe5b81526020018281526020019250505060405180910390a15050565b8173ffffffffffffffffffffffffffffffffffffffff166117a4611fee565b73ffffffffffffffffffffffffffffffffffffffff161415611811576040517f08c379a0000000000000000000000000000000000000000000000000000000008152600401808060200182810382526029815260200180612ecb6029913960400191505060405180910390fd5b806002600061181e611fee565b73ffffffffffffffffffffffffffffffffffffffff1673ffffffffffffffffffffffffffffffffffffffff16815260200190815260200160002060008473ffffffffffffffffffffffffffffffffffffffff1673ffffffffffffffffffffffffffffffffffffffff16815260200190815260200160002060006101000a81548160ff0219169083151502179055508173ffffffffffffffffffffffffffffffffffffffff166118cb611fee565b73ffffffffffffffffffffffffffffffffffffffff167f17307eab39ab6107e8899845ad3d59bd9653f200f220920489ca2b5937696c318360405180821515815260200191505060405180910390a35050565b6000600260008473ffffffffffffffffffffffffffffffffffffffff1673ffffffffffffffffffffffffffffffffffffffff16815260200190815260200160002060008373ffffffffffffffffffffffffffffffffffffffff1673ffffffffffffffffffffffffffffffffffffffff16815260200190815260200160002060009054906101000a900460ff16905092915050565b600073ffffffffffffffffffffffffffffffffffffffff168473ffffffffffffffffffffffffffffffffffffffff161415611a38576040517f08c379a0000000000000000000000000000000000000000000000000000000008152600401808060200182810382526025815260200180612e276025913960400191505060405180910390fd5b611a40611fee565b73ffffffffffffffffffffffffffffffffffffffff168573ffffffffffffffffffffffffffffffffffffffff161480611a865750611a8585611a80611fee565b61191e565b5b611adb576040517f08c379a0000000000000000000000000000000000000000000000000000000008152600401808060200182810382526029815260200180612dfe6029913960400191505060405180910390fd5b6000611ae5611fee565b9050611b05818787611af6886126eb565b611aff886126eb565b87611ff6565b611b82836040518060600160405280602a8152602001612ea1602a91396001600088815260200190815260200160002060008a73ffffffffffffffffffffffffffffffffffffffff1673ffffffffffffffffffffffffffffffffffffffff16815260200190815260200160002054611ffe9092919063ffffffff16565b6001600086815260200190815260200160002060008873ffffffffffffffffffffffffffffffffffffffff1673ffffffffffffffffffffffffffffffffffffffff16815260200190815260200160002081905550611c39836001600087815260200190815260200160002060008873ffffffffffffffffffffffffffffffffffffffff1673ffffffffffffffffffffffffffffffffffffffff168152602001908152602001600020546120b890919063ffffffff16565b6001600086815260200190815260200160002060008773ffffffffffffffffffffffffffffffffffffffff1673ffffffffffffffffffffffffffffffffffffffff168152602001908152602001600020819055508473ffffffffffffffffffffffffffffffffffffffff168673ffffffffffffffffffffffffffffffffffffffff168273ffffffffffffffffffffffffffffffffffffffff167fc3d58168c5ae7397731d063d5bbf3d657854427343f4c083240f7aacaa2d0f628787604051808381526020018281526020019250505060405180910390a4611d1f81878787878761275b565b505050505050565b600560009054906101000a900473ffffffffffffffffffffffffffffffffffffffff1673ffffffffffffffffffffffffffffffffffffffff163373ffffffffffffffffffffffffffffffffffffffff1614611dea576040517f08c379a00000000000000000000000000000000000000000000000000000000081526004018080602001828103825260118152602001807f4f6e6c79205132542063616e206d696e7400000000000000000000000000000081525060200191505060405180910390fd5b60008111611e60576040517f08c379a00000000000000000000000000000000000000000000000000000000081526004018080602001828103825260108152602001807f416d6f756e742063616e7420626520300000000000000000000000000000000081525060200191505060405180910390fd5b6000611e99600560009054906101000a900473ffffffffffffffffffffffffffffffffffffffff16846003811115611e9457fe5b610966565b14611f0c576040517f08c379a000000000000000000000000000000000000000000000000000000000815260040180806020018281038252601a8152602001807f54656d706c61746520616c72656164792068617320746f6b656e00000000000081525060200191505060405180910390fd5b611f55600560009054906101000a900473ffffffffffffffffffffffffffffffffffffffff16836003811115611f3e57fe5b600160405180602001604052806000815250612a68565b60066000836003811115611f6557fe5b60ff1660ff1681526020019081526020016000208190806001815401808255809150506001900390600052602060002001600090919091909150557f32037f9d900298ca13908135e59075a7caac9f46b80a42da749c1b3b94513df3828260405180836003811115611fd357fe5b81526020018281526020019250505060405180910390a15050565b600033905090565b505050505050565b60008383111582906120ab576040517f08c379a00000000000000000000000000000000000000000000000000000000081526004018080602001828103825283818151815260200191508051906020019080838360005b83811015612070578082015181840152602081019050612055565b50505050905090810190601f16801561209d5780820380516001836020036101000a031916815260200191505b509250505060405180910390fd5b5082840390509392505050565b600080828401905083811015612136576040517f08c379a000000000000000000000000000000000000000000000000000000000815260040180806020018281038252601b8152602001807f536166654d6174683a206164646974696f6e206f766572666c6f77000000000081525060200191505060405180910390fd5b8091505092915050565b61215f8473ffffffffffffffffffffffffffffffffffffffff16612c6b565b156124c7578373ffffffffffffffffffffffffffffffffffffffff1663bc197c8187878686866040518663ffffffff1660e01b8152600401808673ffffffffffffffffffffffffffffffffffffffff1681526020018573ffffffffffffffffffffffffffffffffffffffff168152602001806020018060200180602001848103845287818151815260200191508051906020019060200280838360005b838110156122175780820151818401526020810190506121fc565b50505050905001848103835286818151815260200191508051906020019060200280838360005b8381101561225957808201518184015260208101905061223e565b50505050905001848103825285818151815260200191508051906020019080838360005b8381101561229857808201518184015260208101905061227d565b50505050905090810190601f1680156122c55780820380516001836020036101000a031916815260200191505b5098505050505050505050602060405180830381600087803b1580156122ea57600080fd5b505af192505050801561231e57506040513d602081101561230a57600080fd5b810190808051906020019092919050505060015b6124285761232a612c9c565b8061233557506123d7565b806040517f08c379a00000000000000000000000000000000000000000000000000000000081526004018080602001828103825283818151815260200191508051906020019080838360005b8381101561239c578082015181840152602081019050612381565b50505050905090810190601f1680156123c95780820380516001836020036101000a031916815260200191505b509250505060405180910390fd5b6040517f08c379a0000000000000000000000000000000000000000000000000000000008152600401808060200182810382526034815260200180612d536034913960400191505060405180910390fd5b63bc197c8160e01b7bffffffffffffffffffffffffffffffffffffffffffffffffffffffff1916817bffffffffffffffffffffffffffffffffffffffffffffffffffffffff1916146124c5576040517f08c379a0000000000000000000000000000000000000000000000000000000008152600401808060200182810382526028815260200180612d876028913960400191505060405180910390fd5b505b505050505050565b600073ffffffffffffffffffffffffffffffffffffffff168373ffffffffffffffffffffffffffffffffffffffff161415612555576040517f08c379a0000000000000000000000000000000000000000000000000000000008152600401808060200182810382526023815260200180612e7e6023913960400191505060405180910390fd5b600061255f611fee565b905061258f81856000612571876126eb565b61257a876126eb565b60405180602001604052806000815250611ff6565b61260c82604051806060016040528060248152602001612dda602491396001600087815260200190815260200160002060008873ffffffffffffffffffffffffffffffffffffffff1673ffffffffffffffffffffffffffffffffffffffff16815260200190815260200160002054611ffe9092919063ffffffff16565b6001600085815260200190815260200160002060008673ffffffffffffffffffffffffffffffffffffffff1673ffffffffffffffffffffffffffffffffffffffff16815260200190815260200160002081905550600073ffffffffffffffffffffffffffffffffffffffff168473ffffffffffffffffffffffffffffffffffffffff168273ffffffffffffffffffffffffffffffffffffffff167fc3d58168c5ae7397731d063d5bbf3d657854427343f4c083240f7aacaa2d0f628686604051808381526020018281526020019250505060405180910390a450505050565b606080600167ffffffffffffffff8111801561270657600080fd5b506040519080825280602002602001820160405280156127355781602001602082028036833780820191505090505b509050828160008151811061274657fe5b60200260200101818152505080915050919050565b61277a8473ffffffffffffffffffffffffffffffffffffffff16612c6b565b15612a60578373ffffffffffffffffffffffffffffffffffffffff1663f23a6e6187878686866040518663ffffffff1660e01b8152600401808673ffffffffffffffffffffffffffffffffffffffff1681526020018573ffffffffffffffffffffffffffffffffffffffff16815260200184815260200183815260200180602001828103825283818151815260200191508051906020019080838360005b83811015612833578082015181840152602081019050612818565b50505050905090810190601f1680156128605780820380516001836020036101000a031916815260200191505b509650505050505050602060405180830381600087803b15801561288357600080fd5b505af19250505080156128b757506040513d60208110156128a357600080fd5b810190808051906020019092919050505060015b6129c1576128c3612c9c565b806128ce5750612970565b806040517f08c379a00000000000000000000000000000000000000000000000000000000081526004018080602001828103825283818151815260200191508051906020019080838360005b8381101561293557808201518184015260208101905061291a565b50505050905090810190601f1680156129625780820380516001836020036101000a031916815260200191505b509250505060405180910390fd5b6040517f08c379a0000000000000000000000000000000000000000000000000000000008152600401808060200182810382526034815260200180612d536034913960400191505060405180910390fd5b63f23a6e6160e01b7bffffffffffffffffffffffffffffffffffffffffffffffffffffffff1916817bffffffffffffffffffffffffffffffffffffffffffffffffffffffff191614612a5e576040517f08c379a0000000000000000000000000000000000000000000000000000000008152600401808060200182810382526028815260200180612d876028913960400191505060405180910390fd5b505b505050505050565b600073ffffffffffffffffffffffffffffffffffffffff168473ffffffffffffffffffffffffffffffffffffffff161415612aee576040517f08c379a0000000000000000000000000000000000000000000000000000000008152600401808060200182810382526021815260200180612f456021913960400191505060405180910390fd5b6000612af8611fee565b9050612b1981600087612b0a886126eb565b612b13886126eb565b87611ff6565b612b7c836001600087815260200190815260200160002060008873ffffffffffffffffffffffffffffffffffffffff1673ffffffffffffffffffffffffffffffffffffffff168152602001908152602001600020546120b890919063ffffffff16565b6001600086815260200190815260200160002060008773ffffffffffffffffffffffffffffffffffffffff1673ffffffffffffffffffffffffffffffffffffffff168152602001908152602001600020819055508473ffffffffffffffffffffffffffffffffffffffff16600073ffffffffffffffffffffffffffffffffffffffff168273ffffffffffffffffffffffffffffffffffffffff167fc3d58168c5ae7397731d063d5bbf3d657854427343f4c083240f7aacaa2d0f628787604051808381526020018281526020019250505060405180910390a4612c648160008787878761275b565b5050505050565b600080823b905060008111915050919050565b6000601f19601f8301169050919050565b60008160e01c9050919050565b600060443d1015612cac57612d4f565b60046000803e612cbd600051612c8f565b6308c379a08114612cce5750612d4f565b60405160043d036004823e80513d602482011167ffffffffffffffff82111715612cfa57505050612d4f565b808201805167ffffffffffffffff811115612d19575050505050612d4f565b8060208301013d8501811115612d3457505050505050612d4f565b612d3d82612c7e565b60208401016040528296505050505050505b9056fe455243313135353a207472616e7366657220746f206e6f6e2045524331313535526563656976657220696d706c656d656e746572455243313135353a204552433131353552656365697665722072656a656374656420746f6b656e73455243313135353a2062616c616e636520717565727920666f7220746865207a65726f2061646472657373455243313135353a206275726e20616d6f756e7420657863656564732062616c616e6365455243313135353a2063616c6c6572206973206e6f74206f776e6572206e6f7220617070726f766564455243313135353a207472616e7366657220746f20746865207a65726f2061646472657373455243313135353a207472616e736665722063616c6c6572206973206e6f74206f776e6572206e6f7220617070726f766564455243313135353a206275726e2066726f6d20746865207a65726f2061646472657373455243313135353a20696e73756666696369656e742062616c616e636520666f72207472616e73666572455243313135353a2073657474696e6720617070726f76616c2073746174757320666f722073656c66455243313135353a206163636f756e747320616e6420696473206c656e677468206d69736d61746368455243313135353a2069647320616e6420616d6f756e7473206c656e677468206d69736d61746368455243313135353a206d696e7420746f20746865207a65726f2061646472657373a2646970667358221220383aac666ffc0449b64187b41a392356737ee37f1261ca3bec8c7e9e18a9433264736f6c63430007040033",
  "linkReferences": {},
  "deployedLinkReferences": {}
}